:020000040800F2
:10000000B8090020C9200008F1040008F304000822
:10001000F7040008FB040008FF04000800000000CB
:1000200000000000000000000000000003050008C0
:100030000505000800000000070500080905000884
:10004000E3200008E3200008E3200008E320000884
:10005000E3200008E3200008F11A0008E32000086C
:10006000E3200008E3200008E3200008E320000864
:10007000E3200008E3200008E3200008E320000854
:10008000E3200008E3200008E3200008E320000844
:10009000E3200008E3200008E3200008E320000834
:1000A000E3200008E3200008E3200008E320000824
:1000B000DB0E0008650F0008E3200008E3200008BD
:1000C000E3200008E3200008E3200008E320000804
:1000D000E3200008E32000083B200008E32000089C
:1000E000E3200008E3200008E3200008E3200008E4
:1000F000E3200008E3200008E3200008E3200008D4
:10010000E3200008E3200008E3200008E3200008C3
:10011000E3200008E3200008E3200008E3200008B3
:10012000E3200008E3200008E3200008E3200008A3
:1001300000F002F800F05AF80AA090E8000C82449F
:100140008344AAF10107DA4501D100F04FF8AFF27C
:10015000090EBAE80F0013F0010F18BFFB1A43F0A5
:100160000103184774580000945800000A444FF0E7
:10017000000C10F8013B13F0070408BF10F8014B06
:100180001D1108BF10F8015B641E05D010F8016B4B
:10019000641E01F8016BF9D113F0080F1EBF10F8AF
:1001A000014BAD1C0C1B09D16D1E58BF01F801CBD2
:1001B000FAD505E014F8016B01F8016B6D1EF9D555
:1001C0009142D6D37047000000230024002500266A
:1001D000103A28BF78C1FBD8520728BF30C148BFAA
:1001E0000B6070471FB51FBD10B510BD03F0D0FFE9
:1001F0001146FFF7F7FF00F009F803F0EEFF03B434
:10020000FFF7F2FF03BC01F0B9FE00001FB500BF0D
:1002100000BF00BF01F048FE4FF4A06002F0F8FC00
:100220004FF4165001F0B9FE00F060FA00F05CFCEB
:1002300000F0F7FC00F0ACFF40F2CF21032000F00B
:10024000F1FD41F61F41092000F019FE00F030FBDE
:1002500001F028FC642001F064FE0120824908605E
:100260008248006882490860FDE001F0B9FD7F48DE
:10027000006880490860804908688049096805F07D
:10028000D1F87DD07E480078401C7D4908707D48BB
:100290000078401C7B4908704FF080407A49086024
:1002A00074480068724908607448006877490860BB
:1002B00071480068714908607548B0F900007549D7
:1002C00008807549B1F90210734AB2F90020881A02
:1002D00000EBD071491009B26D4A11806B4801687A
:1002E0006648006805F038FA824604F03FFF07468A
:1002F00000226A4B04F060FC054604F017FC04463B
:1003000064480188081B0FFA80F9484605F0DAF8BE
:10031000019004F02BFF0546614A624B04F04CFC4F
:10032000074688466048006804F020FF05464FF005
:1003300066325E4B04F040FC3A464346CDE902018A
:1003400004F0ECF9824604F0B7F9574908605848C0
:1003500000680090574803685748026808460168DB
:100360004948006801F0DCFB5449086054480068C3
:1003700080F000455248294602685048006800E075
:100380006AE001F0BBFB4D4908604E4800680090F0
:100390004D48036808460268384801683A480068D2
:1003A00001F006FC054649480168284604F00AFFAA
:1003B00046490860464A47494448006801F09EFBA8
:1003C000424908600846006880F0004642480168DB
:1003D000304605F0C1F9054605F058F800B23F492E
:1003E00008803A48006880F000463B480168304683
:1003F00004F0E8FE054605F049F800B238490880E7
:100400003648B0F9000005F05DF80646354A364931
:1004100001F074FB054605F039F800B22F49088059
:100420002F48B0F9000005F04DF806462D4A2E4938
:1004300001F064FB054605F029F800B22849088060
:100440002648B0F90010002001F07EFC2448B0F9E5
:100450000010012001F078FC24480068012802D136
:1004600000202249086000E7B081214230010020CD
:10047000A0000020A4000020BC010020B400002047
:100480009E0000209F000020AC000020B80000204B
:100490001E0100202001002018010020008056408D
:1004A0009A9999999999A93F240100206666EE3F8F
:1004B000C8000020C4000020F8000020F400002044
:1004C0000C010020C0000020BC0000201001002012
:1004D00000004844000048C400010020140100202E
:1004E0001601002000001644000016C498012242A4
:1004F000704700BFFEE700BFFEE700BFFEE700BF9A
:10050000FEE7704770477047704700000CB5002049
:10051000019000906C48006840F480306A4908609F
:1005200000BF6948006800F4003000900198401C4A
:100530000190009818B90198B0F5A06FF1D1624808
:10054000006800F4003010B10120009001E00020AC
:1005500000900098012843D15C48006840F01000EA
:100560005A4908600846006820F003000860084601
:10057000006840F0020008605348406852494860F3
:100580000846406848600846406840F4806048601B
:100590000846406820F47C1048600846406840F4F3
:1005A000E81048600846006840F08070086000BFAE
:1005B0004548006800F000700028F9D042484068C3
:1005C00020F00300404948600846406840F00200BF
:1005D000486000BF3C48406800F00C000828F9D192
:1005E0000CBD10B5FFF792FF10BD10B5364800687E
:1005F00040F001003449086008464068344908402A
:100600003149486008460068324908402E49086070
:100610000846006820F4802008600846406820F4FE
:10062000FE0048604FF41F008860FFF7DAFF4FF0CC
:1006300000602949086010BD10B50021002000228B
:10064000214B5B6803F00C0121B1042906D0082975
:1006500028D107E0214B224C236027E01F4B204C80
:10066000236023E0184B5B6803F47010164B5B6843
:1006700003F48032022303EB904022B9194B434329
:10068000174C23600DE0104B5B6803F4003323B17B
:10069000144B4343124C236003E0104B4343104C74
:1006A000236003E00D4B0E4C236000BF00BF064BE0
:1006B0005B68C3F303130C4CE15C094B1B68CB4034
:1006C000074C236010BD00000010024000200240D3
:1006D0000000FFF8FFFFF6FE08ED00E000127A00D0
:1006E0000000002000093D000400002008B50121A1
:1006F000102002F025F80121042002F021F8012148
:10070000082002F01DF88020ADF8000010208DF8C0
:10071000030003208DF8020069462F4801F054FDC4
:1007200080212D4801F0FDFD4020ADF80000694614
:10073000294801F049FD4021274801F0F2FD02203F
:10074000ADF8000010208DF8030003208DF80200A2
:100750006946224801F038FD0221204801F0E1FD00
:100760000120ADF8000069461C4801F02DFD402134
:100770001A4801F0D6FD0120ADF80000694617487F
:1007800001F022FD4020ADF8000010208DF803009C
:1007900003208DF802006946114801F015FD402143
:1007A0000F4801F0BEFD8020ADF8000069460C48FE
:1007B00001F00AFD80210A4801F0B3FD4FF400501A
:1007C000ADF800006946064801F0FEFC4FF4005108
:1007D000034801F0A6FD08BD00080140000C0140DF
:1007E0000010014030B589B005460C4601210220B9
:1007F00001F0B3FF0121042001F0A2FF0121082034
:1008000001F09EFF4020ADF8200018208DF8230055
:1008100003208DF8220008A9224801F0D5FC012010
:10082000ADF8200018208DF8230003208DF8220059
:1008300008A91D4801F0C8FCADF81850ADF81440E7
:100840000020ADF81A00ADF8160005A9174802F00F
:1008500021FB7020ADF804000120ADF80600002057
:10086000ADF80A00ADF80C0001A9104802F04FFBEA
:1008700001A90E4802F0DAFB01210C4802F072FED9
:1008800008210A4802F092FF0821084802F0A4FF5C
:100890000121064802F05AFF0121044802F056FEE9
:1008A00009B030BD00080140000C014000040040C8
:1008B00000207A49096848607849096848617749A1
:1008C000096888617648754909688860002073491D
:1008D0000968C86071490968086170490968086059
:1008E00070472DE9F05F04460D466C4800680560CE
:1008F0006A4800680068001B6A4908606748006829
:1009000040690968081A654909688861654800688E
:1009100062490968486161490968886904F0D2FD43
:1009200083465E4800680169584604F017FE814618
:100930005C48006804F0C6FD83465848006881683A
:10094000584604F00BFE8246494604F03BFC06463E
:1009500004F00CFC074688463846414604F0E6F8A9
:100960005149086008460068BDE8F09F70B504462C
:10097000002C02DB00BF012501E0644200250120BC
:100980004A4908604A490C80012D07D10020494995
:10099000086001204849C1F8840106E0012045496A
:1009A000086000204449C1F884014449086844496A
:1009B00004F0A0FE05D341490868424904F09AFDBD
:1009C00003D201203949086067E03C4908683E4984
:1009D00004F090FE05D3394908683C4904F08AFDCB
:1009E0000FD200214FF43450FFF7FCFE4FF4FA71A0
:1009F000374803F043F84FF4FA71354803F042F8F2
:100A000046E02E490868334904F074FE05D32B49AB
:100A10000868314904F06EFD0FD203214FF43450C1
:100A2000FFF7E0FE4FF4FA71294803F027F84FF47E
:100A3000FA71274803F026F82AE020490868274978
:100A400004F058FE05D31D490868254904F052FDFD
:100A50000FD207214FF43450FFF7C4FE4FF4FA7160
:100A60001B4803F00BF84FF4FA71194803F00AF829
:100A70000EE009214FF43450FFF7B4FE4FF4FA7141
:100A8000134802F0FBFF4FF4FA71114802F0FAFF2D
:100A90000020144908600549086070BD140000205A
:100AA000CDCCCC3D2000002024000020B08121428C
:100AB0001C0000209C01214200802142BC0100203A
:100AC00000000C4200000CC200004041000040C188
:100AD000000400400000C0400000C0C000004040D2
:100AE000000040C09000002000B585B00121082022
:100AF00001F026FE0121880501F02FFE4FF4406031
:100B0000ADF8100003208DF812001C208DF81300A2
:100B100004A9BE4801F058FB0020ADF804004BF6D4
:100B2000FF70ADF80600D020ADF808004FF48060EB
:100B3000ADF80A000001ADF80C00B54800900121A5
:100B4000B44803F078F86946B24802F0F6FF012194
:100B5000B04803F0ACF805B000BD08B50020009027
:100B600000BF0121AB4803F08AF81421A94803F023
:100B7000E5F800900022D021A64803F0D6F8142111
:100B8000A44803F0DBF800F002000028E9D0A249F5
:100B9000A04803F094F901219E4803F07CF808BDB9
:100BA00070B504460D4600BF4FF40031994803F07C
:100BB00069F90028F8D10121964803F060F800BFD8
:100BC0009649944803F03CF90028F9D00022D0213E
:100BD000904803F0AAF800BF91498E4803F030F91D
:100BE0000028F9D021468B4803F099F800BF8C49C2
:100BF000891C884803F024F90028F8D02946854844
:100C000003F08DF800BF8649891C824803F018F96B
:100C10000028F8D001217F4803F03DF8FFF79DFF41
:100C200070BD10B5642001F07CF900216B20FFF746
:100C3000B7FF0A2001F075F907211920FFF7B0FF6F
:100C40000A2001F06EF906211A20FFF7A9FF0A20F9
:100C500001F067F918211B20FFF7A2FF0A2001F01D
:100C600060F901211C20FFF79BFF4FF47A7001F01F
:100C700058F910BD70B5044600BF4FF40031654807
:100C800003F000F90028F8D10121624802F0F7FFD3
:100C900000BF62495F4803F0D3F80028F9D0002272
:100CA000D0215C4803F041F800BF5D49594803F08A
:100CB000C7F80028F9D00121564802F0BCFF2146B0
:100CC000544803F02CF800BF5549891C514803F0E3
:100CD000B7F80028F8D001214E4802F0D0FF00BF3D
:100CE0004E494C4803F0ACF80028F9D00122D0213D
:100CF000484803F01AF800BF4849491C454803F02A
:100D00009FF80028F8D00021424802F0D0FF0121CE
:100D1000404802F0C0FF41493F313E4803F090F89F
:100D200018B13C4802F0FDFF05460121394802F0A8
:100D3000BEFF284670BD70B505460E46144600BF7E
:100D40004FF40031334803F09DF80028F8D1012119
:100D5000304802F094FF00BF30492E4803F070F88D
:100D60000028F9D00022D0212A4802F0DEFF00BF7F
:100D70002B49284803F064F80028F9D001212548C0
:100D800002F059FF3146234802F0C9FF00BF244951
:100D9000891C204803F054F80028F8D001211D4890
:100DA00002F06DFF00BF1D491A4803F049F8002802
:100DB000F9D00122D021174802F0B7FF00BF174930
:100DC000491C144803F03CF80028F8D016E0012C28
:100DD00007D100210F4802F06AFF01210D4802F0FF
:100DE0005AFF0E493F310B4803F02AF830B1094849
:100DF00002F097FF28706D1C601EC4B2002CE6D173
:100E00000121044802F053FF70BD0000000C0140B6
:100E1000801A060000580040000400100100030082
:100E2000820007007FB505460C460121022001F033
:100E300094FCADF80850ADF804400020ADF80A006D
:100E4000ADF8060001A9814802F024F801221146FC
:100E50007E4802F096FB1D208DF8000000208DF8E2
:100E6000010003208DF8020001208DF80300684680
:100E700001F0D3FE0121754802F068FB7FBD7FB50C
:100E800005460C460121084601F067FCADF8085004
:100E9000ADF804400020ADF80A00ADF8060001A945
:100EA0004FF0804001F0F6FF01221146900702F05A
:100EB00068FB1C208DF8000000208DF80100032045
:100EC0008DF8020001208DF80300684601F0A5FEB0
:100ED0000121880702F03AFB7FBD10B50121880788
:100EE00002F0FDFD00283CD00121880702F008FE39
:100EF00057480078401C5649087056480088401CE6
:100F00005449088054480068401C534908605048C0
:100F1000007802280BD100F0DBF905224F49504838
:100F200000F0B4F800F061FD00204949087049481C
:100F30000088B0F5FA7F14D100204649088049485E
:100F4000006808B9012000E00020464908604648D2
:100F5000D0F89C0108B9012000E000204149091D9A
:100F6000086010BD10B50121384802F0B8FD002816
:100F700069D00121354802F0C3FD3C480088401C7F
:100F80003A49088008464088401C48800846008846
:100F900037490978374A32F81110884224DB00209B
:100FA00032490880104600884FF6FF71884200D110
:100FB00010BD3148007818B100203049086002E0C7
:100FC00001202E4908602A480078401C00F00700E4
:100FD0002749087001202949091F086000F07DFF9A
:100FE00000202749C1F898012048418820484278CC
:100FF0002048103030F81200814224DB00201B49C9
:1010000048801C48008A4FF6FF71884200D1CFE724
:101010001948407818B101201A49086002E0002000
:101020001849086012484078401C00F00700104939
:10103000487001201349091F086000F04EFF00208E
:101040001149C1F8800100BFB2E700000004004070
:101050002E0000203200002030010020520000202D
:101060004600002098012242000022422801002070
:101070002C010020700200201C0100209C01214254
:101080000000214284812142008021422DE9FC5F41
:1010900082468B46144600210D460E460F46884672
:1010A00000910191BAF80000FE490880BAF80200E8
:1010B000FD490880BAF80400FC4908804FF0000997
:1010C00019E0F84830F91900451946EBE076F64882
:1010D00030F91910CF1948EBE178F44830F91920AC
:1010E000DDE90001101841EBE273CDE9000309F1DD
:1010F000010000F0FF09A145E3DB2246002328465A
:10110000314602F092FF00B2ABF800002246002305
:101110003846414602F089FF00B2ABF80200224691
:101120000023DDE9000102F080FF00B2ABF804000B
:101130004FF0000927E0A01EA0EB0900D94931F8C3
:101140001010601EA0EB0900D64A22F81010A01E55
:10115000A0EB0900D44931F81010601EA0EB090083
:10116000D14A22F81010A01EA0EB0900CF4931F897
:101170001010601EA0EB0900CC4A22F8101009F1F3
:10118000010000F0FF09601E4845D4DCBDE8FC9F6B
:101190001FB5002451E00E223B216846FFF7CBFD2E
:1011A000012000F0BEFE9DF801009DF8001040EA0D
:1011B0000120BF490988084400B2BD4908809DF854
:1011C00003009DF8021040EA0120BA49098808444A
:1011D00000B2B84908809DF805009DF8041040EA67
:1011E0000120B5490988084400B2B34908809DF838
:1011F00009009DF8081040EA0120B0490988084418
:1012000000B2AE4908809DF80B009DF80A1040EA34
:101210000120AB490988084400B2A94908809DF81B
:101220000D009DF80C1040EA0120A64909880844E9
:1012300000B2A4490880601C84B23C2CABDB9C4803
:10124000B0F900003C2190FBF1F000B29E4908800B
:101250000020974908809748B0F900003C2190FB96
:10126000F1F000B299490880002092490880924824
:10127000B0F900003C2190FBF1F000B294490880E5
:1012800000208D4908808D48B0F900003C2190FB7A
:10129000F1F000B28F490880002088490880884812
:1012A000B0F900003C2190FBF1F000B28A490880BF
:1012B0000020834908808348B0F900003C2190FB5E
:1012C000F1F000B28549088000207E4908801FBDEA
:1012D0002DE9F0478EB000210C460D460E460F4614
:1012E000884689460E223B210AA8FFF724FD9DF877
:1012F00029009DF8281040EA012073490988401A06
:1013000000B2774908809DF82B009DF82A1040EA2A
:1013100001206E490988401A00B2714948809DF841
:101320002D009DF82C1040EA012069490988401AD7
:1013300000B26B4988809DF831009DF8301040EA7A
:10134000012064490988401A00B2664908809DF866
:1013500033009DF8321040EA01205F490988401AA5
:1013600000B2604948809DF835009DF8341040EA8D
:1013700001205A490988401A00B25A4988805848C1
:101380000088594908805648408858490880544880
:101390008088574908804FF0000A16E0524830F91B
:1013A0001A00041945EBE075504830F91A00861907
:1013B00047EBE0774E4830F91A0010EB080849EB8C
:1013C000E0790AF1010000F0FF0ABAF1140FE5DB41
:1013D000142200232046294602F027FE00B2454988
:1013E0000880142200233046394602F01EFE00B267
:1013F00040494880142200234046494602F015FE29
:1014000000B23C4988804FF0000A21E0CAF1120086
:10141000354931F81000CAF11301334A22F811009E
:10142000CAF11200314931F81000CAF113012F4AF4
:1014300022F81100CAF112002D4931F81000CAF14A
:1014400013012B4A22F811000AF1010000F0FF0AF3
:10145000BAF1130FDADB2748408827490880214971
:10146000B1F9040003F091FB244A254BCDE90001BA
:1014700003F0A2FB234A244BCDE9020103F09CFBBD
:10148000CDE906012149886803F070FECDE9040129
:10149000DDE9062303F042F9CDE9080103F00CF978
:1014A0001A4935E0400200204A0200205402002080
:1014B0006400002066000020680000206A00002010
:1014C0006C0000206E000020580000205A00002010
:1014D0005C0000205E000020600000206200002010
:1014E0004000002046000020C8010020F00100203C
:1014F000180200203A000020700000201FF1D01CCC
:10150000FE3FAF3FFCA9F1D24D62703F9801002031
:1015100088600EB0BDE8F0872DE9FF4F9BB0804694
:1015200091461C46DDE928ABFE480168006804F0DE
:1015300015F81590FC480168FA48006804F00EF8A8
:101540001490FA480168F748006804F007F813900F
:10155000F5480168006804F001F81290F448016849
:10156000F148006803F0FAFF1190F0480168006844
:1015700003F0F4FF1090EE480168EC48006803F0B7
:10158000EDFF0F90EA480168006803F0E7FF0E9056
:101590005146204603F0E2FF59460C9003F0DEFF6F
:1015A00000210D9003F03EFF02D11FB0BDE8F08F87
:1015B0005946584603F0D2FF51460890504603F072
:1015C000CDFF21460690204603F0C8FF05900699FE
:1015D00003F0F8FD0790089903F0F4FD099003F07B
:1015E000C5FDCDE90A0103F041F8CDE90C0103F096
:1015F00063F819902046199903F052FE04465046AC
:10160000199903F04DFE82465846199903F048FE99
:1016100083461399119804F09FF84FF080410D9084
:1016200003F09CFF18900F99149803F0CBFD4FF036
:1016300080410D9003F092FF17901299159804F0D5
:101640008BF80C90109904F087F80D900E9903F028
:10165000B9FD16905846179903F080FF0D9050463B
:10166000169903F07BFF0C900D9904F075F8054670
:101670002046169903F072FF0D905846189903F012
:101680006DFF0C900D9904F067F8064650461899C6
:1016900003F064FF0D902046179903F05FFF0C9054
:1016A0000D9904F059F80746A249284603F056FF61
:1016B0000D90A14801680D9803F084FD9E490860D3
:1016C0009C49304603F04AFF0D909C4801680D98F4
:1016D00003F078FD994908609649384603F03EFFCB
:1016E0000D90974801680D9803F06CFD94490860CF
:1016F0002946944803F032FF41460C9003F062FD06
:101700000D908D4801680D9803F05CFD80463146D0
:101710008C4803F023FF0C901C9903F053FD0D90AF
:10172000864801680D9803F04DFD1C9039468548A8
:1017300003F014FF49460C9003F044FD0D908048DF
:1017400001680D9803F03EFD8146494678480068DF
:1017500003F004FF0B9075481C99006803F0FEFE2F
:1017600009907148006880F000404146079003F0FE
:10177000F5FE0890099903F0EFFF0A900B9903F02A
:10178000EBFF6C490C9003F0E9FE0D906548016891
:101790000D9803F017FD6349086065481C990068BF
:1017A00003F0DCFE49460B906048006803F0D6FE6B
:1017B00009905C480168404603F0D0FE0890099902
:1017C00003F000FD0A900B9903F0C6FF59490C90F5
:1017D00003F0C4FE0D90544801680D9803F0F2FC2C
:1017E0005149086052480168404603F0B7FE494637
:1017F0000B904D48006803F0B1FE099049481C99D0
:10180000006803F0ABFE0890099903F0A5FF0A9069
:101810000B9903F0D7FC47490C9003F09FFE0D9005
:10182000424801680D9803F0CDFC40490860084625
:101830000168404603F092FE0B903B481C990068FB
:1018400003F08CFE494609903648006803F086FE96
:101850000890099903F0B6FC0A900B9903F07CFFFD
:1018600034490C9003F07AFE0D90314801680D98D0
:1018700003F0A8FC2E49086008460168006803F0E0
:101880006DFE089029480168006803F067FE069025
:1018900025480168006803F061FE04902148016852
:1018A000006803F05BFE0390049903F08BFC059045
:1018B000069903F087FC0790089903F083FC0990D0
:1018C00003F054FCCDE90A0102F0D0FECDE90C0191
:1018D00002F0F2FE199013481999006803F0E0FC39
:1018E0001049086010481999006803F0D9FC0E49A6
:1018F00008600E481999006803F0D2FC0B49086093
:101900000B481999006803F0CBFC094908600748A7
:1019100001684FF0804003F021FE01900348016808
:10192000019811E074000020780000207C00002065
:10193000800000206F12833A84000020880000207D
:101940008C000020CDCCCC3F03F008FE03904A4829
:1019500001684FF0404003F001FE019046480168E5
:10196000019803F0FBFD0290039903F0F5FE4FF0A0
:101970007E51049003F026FC059003F0F7FBCDE9BF
:1019800008013E4801684FF0804003F0E7FD0290F7
:1019900039480168029803F0E1FD04903848016875
:1019A0004FF0804003F0DAFD02903648016802985B
:1019B00003F0D4FD0390049903F004FC059003F0B8
:1019C000D5FBCDE90601DDE9082302F08FFD2E4AA3
:1019D0002E4BCDE90A0103F0EFF8CDE90C0102F03E
:1019E0006BFE2B49086000BFDFE52DE9FF5F294949
:1019F000B1F9040003F066FD04462649B1F902007E
:101A000003F060FD81462349B1F9000003F05AFD5F
:101A100021490390B1F9040003F0B7F807461F4AC3
:101A20001F4B03F0C9F8054602F046FE82461A49EC
:101A3000B1F9020003F0A9F80746184A184B03F061
:101A4000BBF8054602F038FE83461349B1F90000A1
:101A500003F09BF80746114A114B03F0ADF8054619
:101A600002F02AFECDE90094029052465946039BAB
:101A7000FFF752FDBDE8FF9F7800002074000020B2
:101A80007C00002080000020E3A9471ADCA54C4020
:101A9000BC0100203A000020460000202877442A9C
:101AA0003174513F0EB50121084600F049FE002176
:101AB000012000F09FFC0120019000208DF808001B
:101AC0000C208DF8090001208DF80A0001A802F011
:101AD0002BFA06208DF8000002208DF801008DF809
:101AE000020001208DF80300684601F096F80EBD53
:101AF00010B5012002F08FFA10BD000070B5064647
:101B00000D4614462946304603F0F4FC00D22E461A
:101B10002146304603F0EEFD00D22646304670BD29
:101B20002DE9FF4F89B0044691469A4648460A99E6
:101B300003F012FE0790C44AC4490798FFF7DEFF7E
:101B40000546C3480168284603F03CFBC0490860CD
:101B5000C04AC149BE480068FFF7D0FFBC490860D1
:101B600008460168169803F0F9FC2146019003F03D
:101B7000F5FC834603F0FAFA0746B84AB84B03F07F
:101B80001BF8CDE904015046079903F0E7FC07462E
:101B900003F0ECFACDE90201DDE9042302F0BEFD19
:101BA000054602F089FD069006980DB0BDE8F08F5D
:101BB0002DE9F04F85B006460C4615461F46DDF868
:101BC00038802146284603F0C7FD0490A5480168E7
:101BD000204603F0C1FD4146009003F0BFFC834660
:101BE000A1480168284603F0B7FD4146009003F084
:101BF000B5FC5946019003F0AFFD3146029003F069
:101C00004FFB82463846049903F0A8FC51460390E6
:101C100003F0D8FA814695480068924908609348D5
:101C2000046091480560484605B0BDE8F08F30B5C6
:101C30008F4C34F810406CB9002208E04FF6FF7466
:101C40008C4D05EB001525F81240541CE2B2082A11
:101C5000F4DB30BD864C34F91040002C06DD012445
:101C6000854D2C54824C34F9103006E00024824D0E
:101C70002C547F4C34F91040634200220AE04FF4A8
:101C80007A7494FBF3F47B4D05EB001525F81240B4
:101C9000541CE2B2082AF2DB4FF47A7494FBF3F599
:101CA00003FB1544E40094FBF3F1002908DD714CBB
:101CB00004EB00146488641C6E4D05EB00156C8009
:101CC000012908DD6B4C04EB00146489641C694D28
:101CD00005EB00156C81022908DD664C04EB00144D
:101CE000E488641C634D05EB0015EC80032908DDD6
:101CF000604C04EB0014E489641C5E4D05EB001598
:101D0000EC81042908DD5B4C04EB00142488641C7E
:101D1000584D05EB00152C80052908DD554C04EBCA
:101D200000142489641C534D05EB00152C810629F1
:101D300008DD504C04EB0014A488641C4D4D05EBE9
:101D40000015AC8000BF84E730B504460D46484816
:101D500030F91400401B072808DD454830F814000E
:101D6000C01F00B2424921F8140012E0404830F987
:101D70001400401B10F1070F08DA3D4830F814003A
:101D8000C01D00B23A4921F8140002E0384820F89A
:101D900014502046FFF74BFF3548008830B93448CF
:101DA000408818B901203549086002E00020334915
:101DB000086030BD00203249086032490860704731
:101DC000314830490860704730482E4908607047F4
:101DD0002F482B49086070472E48294908607047F2
:101DE00000B52D48008800F4004050B12B48007821
:101DF0002B490860084600882A49088000202649A7
:101E0000088027480068012802D1FFF7E5FF1AE0A3
:101E100023480068022802D1FFF7DAFF13E02048C8
:101E20000068032802D1FFF7CFFF0CE01C480068D0
:101E3000042802D1FFF7C4FF05E01948006805280F
:101E400001D1FFF7B7FF00BD00002042000020C213
:101E5000E400002000409C4500409CC5FCA9F1D254
:101E60004D62503FEC000020F0000020E800002010
:101E700018010020700200201C010020B0812142C6
:101E8000F8000020000100200000A0420000A0C2D5
:101E90000000C8420000C8C23C010020900200209F
:101EA000B00000200444004010B56FF0040000F0C2
:101EB000FEFE2E4800682E49B0FBF1F02D49087057
:101EC0000846007800EB4001C1EBC0104FF6FF71EF
:101ED00001EAC0002849088010BD0146254A127851
:101EE0004A434FF0E0235A6100229A611A46126970
:101EF00042F001021A6100BF4FF0E022106900F0C9
:101F000001021AB100F48032002AF5D04FF0E0222D
:101F1000126922F001024FF0E0231A6100229A6157
:101F200070470146144A12884A434FF0E0235A6131
:101F300000229A611A46126942F001021A6100BF3A
:101F40004FF0E022106900F001021AB100F4803273
:101F5000002AF5D04FF0E022126922F001024FF082
:101F6000E0231A6100229A617047000000000020FF
:101F700000127A003401002036010020014600BF23
:101F8000704700BF4B4A128802F04002002AF9D085
:101F9000C2B2484B1B1D1A80704710B586B004466C
:101FA0000121480400F0D9FB0121042000F0C8FB06
:101FB000414800F029FC0420ADF8140003208DF8FE
:101FC000160018208DF8170005A93C4800F0FCF811
:101FD0000820ADF8140004208DF8170005A9374833
:101FE00000F0F2F826208DF8000003208DF80100A3
:101FF0008DF8020001208DF80300684600F00DFE08
:1020000001940020ADF80800ADF80A00ADF80C000E
:10201000ADF810000C20ADF80E0001A9254800F025
:1020200036FC012240F22551224800F0C8FC012173
:10203000204800F0B8FC06B010BD10B540F22551A4
:102040001C4800F0A1FD10B31A4800F01DFDC4B2F9
:102050001B48008800F40040C8B91948008800F403
:10206000804060B10A2C03D000201549088020E090
:102070001348008840F400401149088019E00D2CF5
:1020800006D10F48008840F480400D49088010E0D8
:102090000B480088C0F30D000A490C54084800881A
:1020A000401C0749088008460088C72801DD002039
:1020B000088010BD00440040003801400008014085
:1020C0003C01002090020020094880470948004751
:1020D000FEE7FEE7FEE7FEE7FEE7FEE7FEE7FEE7D8
:1020E000FEE7FEE704480549054A064B7047000035
:1020F000EB05000831010008B8030020B8090020F2
:10210000B8050020B805002010B50446CC4884422C
:1021100008D10121042000F02DFB0021042000F053
:1021200029FB46E0C748844208D10121082000F07D
:1021300021FB0021082000F01DFB3AE0C248844248
:1021400008D10121102000F015FB0021102000F023
:1021500011FB2EE0BD48844208D10121202000F06F
:1021600009FB0021202000F005FB22E0B848844252
:1021700008D10121402000F0FDFA0021402000F0AC
:10218000F9FA16E0B348844208D10121802000F01A
:10219000F1FA0021802000F0EDFA0AE0AE48844216
:1021A00007D10121801500F0E5FA0021A01500F00B
:1021B000E1FA10BD10B50121084600F0DBFA00215C
:1021C000012000F0D7FA10BD2DE9F04102460025AC
:1021D0000026002000230024002791F803C00CF003
:1021E0000F0591F803C00CF0100CBCF1000F03D0E8
:1021F00091F802C04CEA050591F800C0BCF1000F4F
:1022000031D0146800202BE04FF0010C0CFA00F3E1
:10221000B1F800C00CEA03069E4220D183004FF0C3
:102220000F0C0CFA03F7BC4305FA03FC4CEA040458
:1022300091F803C0BCF1280F06D14FF0010C0CFA45
:1022400000FCC2F814C00AE091F803C0BCF1480FCA
:1022500005D14FF0010C0CFA00FCC2F810C0401C74
:102260000828D1D31460B1F800C0BCF1FF0F34DDF1
:10227000546800202EE000F1080C4FF0010808FA25
:102280000CF3B1F800C00CEA03069E4221D1830092
:102290004FF00F0C0CFA03F7BC4305FA03FC4CEAB1
:1022A000040491F803C0BCF1280F05D100F1080C1B
:1022B00008FA0CF8C2F8148091F803C0BCF1480F7A
:1022C00007D100F1080C4FF0010808FA0CF8C2F829
:1022D0001080401C0828CED35460BDE8F0814FF632
:1022E000FF710180022181700421C1707047024694
:1022F000002093680B400BB1012000E000207047E4
:102300000146886880B2704702460020D3680B40BF
:102310000BB1012000E0002070470146C86880B280
:10232000704701617047416170470AB1016100E087
:1023300041617047C16070474FF480320A43826147
:102340008161826182698269704702460020434B45
:1023500018684FF68073184040EA021008433F4B5C
:10236000186070473E49C8617047F0B50A460023BF
:1023700000240021002500F00046B6F1004F02D1F4
:10238000364EF16901E0354E7168C0F3034583B202
:1023900000F44016B6F5401F08D121F070612F4EB1
:1023A000766826F070662D4F7E6012E000F480168D
:1023B000B6F5801F06D1032606FA05F4A14341F0C5
:1023C000706106E0460D360103FA06F6B14341F0AE
:1023D000706122B1460D360103FA06F6314300F072
:1023E0000046B6F1004F02D11C4EF16101E01B4ED8
:1023F0007160F0BD30B500228B071C0F0F2303FA6C
:1024000004F2164B08338C1053F824309343134CCA
:1024100008348D1044F8253023468C1053F82430AE
:102420008C07240F00FA04F423430C4C08348D105D
:1024300044F8253030BD0A49DC310860704700009F
:1024400000080140000C0140001001400014014050
:1024500000180140001C0140002001400000014024
:1024600000002042DF48006840F00100DD490860BC
:1024700008464068DC490840DA4948600846006878
:10248000DA490840D74908600846006820F48020EF
:1024900008600846406820F4FE0048604FF41F00C2
:1024A00088607047CF49096821F48031CD4A1160B6
:1024B0001146096821F480211160B0F5803F03D0F6
:1024C000B0F5802F0ED106E0C649096841F480318D
:1024D000C44A116007E0C349096841F4A021C14A18
:1024E000116000E000BF00BF704710B50146002238
:1024F000002300204A11012A02D1BA4C236806E0C9
:10250000022A02D1B74C236A01E0B64C636A01F09B
:102510001F02012494401C400CB1012000E0002067
:1025200010BD38B5002000900024002500BF3120E8
:10253000FFF7DBFF05460098401C00900098B0F5BF
:10254000A06F01D0002DF2D03120FFF7CEFF08B1EF
:10255000012400E00024204638BD01460020A14AA5
:10256000106820F0F80040EAC10010607047A049F0
:1025700008607047024600209A4B586820F47C108F
:1025800042EA01031843974B586070479849086620
:10259000704701460020934A506820F0030008432A
:1025A000506070478F48406800F00C00704701464B
:1025B00000208C4A506820F0F000084350607047BB
:1025C00001460020874A506820F4E06008435060CC
:1025D000704701460020834A506820F4605040EA6A
:1025E000C1005060704729B17E4A527A02437D4B48
:1025F0005A7204E07B4A527A82437A4B5A7270478D
:102600007B49D8310860704701460020754A506800
:1026100020F440400843506070470021714A203246
:102620001170704A82F82010012802D004280AD1C3
:1026300004E001216B4A2032117005E00521694A4E
:102640002032117000E000BF00BF70476949086088
:1026500070476449096A0143624A116270476549DB
:1026600044390860704730B500210022002400235F
:102670005C4D6D6805F00C0121B1042905D00829D5
:1026800023D105E05C4D056022E05B4D05601FE055
:10269000544D6D6805F47012524D6D6805F4803428
:1026A000022505EB92421CB9544D554305600BE0E1
:1026B0004C4D6D6805F400351DB1504D5543056016
:1026C00002E04D4D5543056002E04B4D056000BFF3
:1026D00000BF444D6D6805F0F0010909484D6B5C81
:1026E0000568DD4045603F4D6D6805F4E061090A0D
:1026F000434D6B5C4568DD4085603A4D6D6805F47F
:102700006051C90A3E4D6B5C4568DD40C560354D82
:102710006D6805F44041890B3A4D6B5CC568B5FBAB
:10272000F3F5056130BD29B12E4A526902432D4BA4
:102730005A6104E02B4A526982432A4B5A6170471E
:1027400029B1284A92690243264B9A6104E0254A3E
:1027500092698243234B9A61704729B1214AD26919
:102760000243204BDA6104E01E4AD26982431D4BCA
:10277000DA61704729B11B4AD2680243194BDA600B
:1027800004E0184AD2688243164BDA60704729B1D8
:10279000144A12690243134B1A6104E0114A126988
:1027A0008243104B1A6170471249403908607047E4
:1027B0000F49C86470470B49C87170470948406A9F
:1027C00040F0807007494862704701460020054A82
:1027D00092680A400AB1012000E0002070470149D8
:1027E00088727047001002400000FFF8FFFFF6FEFD
:1027F000000042428004424200127A0000093D007B
:102800003E0100204E01002010B50446FB488442E2
:1028100009D101218803FFF7ADFF00214FF480406B
:10282000FFF7A8FF32E0F648844209D101214804AD
:10283000FFF7ADFF00214FF40030FFF7A8FF25E0C0
:10284000F048844209D101218804FFF7A0FF00214C
:102850004FF48020FFF79BFF18E0EB48844209D13A
:102860000121C804FFF793FF00214FF40020FFF778
:102870008EFF0BE0E548844208D101210805FFF7EF
:1028800086FF00214FF48010FFF781FF10BD2DE976
:10289000F04786B005460E460024A24600BFA1467A
:1028A0000027B08900B100BF2F462C8A4CF6FF707C
:1028B0000440F08804432C82AC894EF6F3100440A7
:1028C000B08831890843718908430443AC81AC8ADC
:1028D0004FF6FF400440B0890443AC8201A8FFF7E3
:1028E000C2FEC648874202D1DDF810A001E0DDF843
:1028F0000CA0A88900F4004040B10AEBCA0000EB2C
:102900000A1031684900B0FBF1F807E00AEBCA0091
:1029100000EB0A1031688900B0FBF1F86420B8FBC5
:10292000F0F004012009642101FB1089A88900F45A
:10293000004040B1322000EBC900B0FBF1F000F0E4
:102940000700044308E0322000EB09106421B0FBCB
:10295000F1F000F00F0004432C8106B0BDE8F087D1
:102960004FF41651016000218180C18001810C214A
:10297000418100218181704710B502460020108AF4
:102980004FF2FF0318400B884C8823438C88234365
:10299000CC8823431843108210BD00210180418060
:1029A0008180C180704721B1828942F400528281C6
:1029B00004E082894DF6FF731A4082817047F0B5BA
:1029C0000346002400260025002040F66A17B9427D
:1029D00000D100BF1846C1F3421401F01F060127C1
:1029E00007FA06F5012C01D10C3004E0022C01D1CC
:1029F000103000E014301AB107682F43076002E07E
:102A00000768AF430760F0BD1AB1838A0B43838226
:102A100002E0838A8B4383827047028A4FF6F07309
:102A20001A400282028A0A430282704782894FF268
:102A3000FF731A40828182890A438281704721B1E3
:102A4000828942F00202828104E082894FF6FD739E
:102A50001A4082817047028A4FF6DF731A40028261
:102A6000028A0A430282704721B1028A42F48042FC
:102A7000028204E0028A4BF6FF731A40028270471A
:102A8000C1F308028280704701468888C0F30800BD
:102A90007047818941F0010181817047028BD2B278
:102AA0000283028B42EA012202837047028B02F406
:102AB0007F420283028B0A430283704721B1828ADC
:102AC00042F02002828204E0828A4FF6DF731A40CD
:102AD0008282704721B1828A42F01002828204E031
:102AE000828A4FF6EF731A408282704721B1828A40
:102AF00042F00802828204E0828A4FF6F7731A409D
:102B00008282704721B1828942F40042828103E0CF
:102B10008289C2F30E028281704721B1828A42F417
:102B20000062828204E0828A4FF2FF731A4082823E
:102B30007047828A4FF6FB731A408282828A0A4368
:102B40008282704721B1828A42F00202828204E0CE
:102B5000828A4FF6FD731A40828270470246002037
:102B6000B1F5007F00D100BF13880B400BB10120ED
:102B700000E00020704701F40072B2F5007F00D140
:102B800000BFCA430280704770B50246002400238C
:102B90000025002040F66A16B14200D100BFC1F303
:102BA000421501F01F03012606FA03F3012D02D19D
:102BB0009689334006E0022D02D1168A334001E0A7
:102BC000968A33400C12012606FA04F41688344023
:102BD00013B10CB1012000E0002070BD10B500223F
:102BE000002340F66A14A14200D100BF0A1201245A
:102BF0009440A3B2DC43048010BD000000380140C3
:102C00000044004000480040004C0040005000409C
:102C100031490143314A1160704770B500210023EA
:102C20000F22C47804B32D4C246804F4E064C4F586
:102C3000E064210AC1F10403CA40447804FA03F1B4
:102C40008478144021430901254C0678A155047865
:102C500004F01F050124AC4005786D11AD0005F1AD
:102C6000E025C5F8004109E0047804F01F050124BF
:102C7000AC401C4D0678761145F8264070BD1A4AC6
:102C80000A400243154B1B1F1A60704739B1134AA3
:102C9000121D12680243114B1B1D1A6006E00F4AF9
:102CA000121D126882430D4B1B1D1A6070470428C9
:102CB00008D14FF0E021096941F004014FF0E02212
:102CC000116107E04FF0E021096921F004014FF0A4
:102CD000E0221161704700000000FA050CED00E0F1
:102CE00000E400E080E100E080FFFF1F10B5044633
:102CF000FE48844208D10121C014FFF73BFD0021AA
:102D0000E014FFF737FDC4E0B4F1804F08D1012192
:102D10000846FFF73CFD00210120FFF738FDB8E031
:102D2000F348844208D101210220FFF730FD002141
:102D30000220FFF72CFDACE0EE48844208D10121CF
:102D40000420FFF724FD00210420FFF720FDA0E070
:102D5000E948844208D101210820FFF718FD00212D
:102D60000820FFF714FD94E0E448844208D10121D3
:102D70001020FFF70CFD00211020FFF708FD88E070
:102D8000DF48844208D101212020FFF700FD002107
:102D90002020FFF7FCFC7CE0DA48844208D10121C6
:102DA0004014FFF7E7FC00216014FFF7E3FC70E03C
:102DB000D548844209D10121C804FFF7DBFC00217A
:102DC0004FF40020FFF7D6FC63E0D048844209D1DD
:102DD00001210805FFF7CEFC00214FF48010FFF71A
:102DE000C9FC56E0CA48844209D101214805FFF7D1
:102DF000C1FC00214FF40010FFF7BCFC49E0C548BE
:102E0000844208D101214020FFF7C1FC002140206D
:102E1000FFF7BDFC3DE0C048844208D1012180207D
:102E2000FFF7B5FC00218020FFF7B1FC31E0BB4883
:102E3000844208D101218015FFF7A9FC0021A015CB
:102E4000FFF7A5FC25E0B648844209D1012108041A
:102E5000FFF790FC00214FF48030FFF78BFC18E067
:102E6000B048844209D101214804FFF783FC0021C6
:102E70004FF40030FFF77EFC0BE0AB48844208D1F2
:102E800001218804FFF776FC00214FF48020FFF732
:102E900071FC10BD00220288944B98420ED0994BD1
:102EA00098420BD0B0F1804F08D0914B984205D09A
:102EB000904B984202D0904B984204D14FF68F73BA
:102EC0001A404B881A438D4B984207D08C4B98423E
:102ED00004D04FF6FF431A40CB881A4302808B88F8
:102EE00083850B880385814B98420BD0854B984294
:102EF00008D08B4B984205D08A4B984202D08A4B1F
:102F0000984201D10B7A038601238382704770B502
:102F1000002400220023058C4FF6FE763540058400
:102F2000028C8388048B4FF68F752C40B51E2C4085
:102F30000D882C43751E2A400D892A434D882A434B
:102F40006A4DA8420BD06F4DA84208D0744DA842DC
:102F500005D0744DA84202D0734DA84213D14FF64C
:102F6000F7752A404D892A434FF6FB752A408D8814
:102F70002A434FF6FF652B404FF6FF552B408D89B6
:102F80002B43CD892B4383800483CD88858602849F
:102F900070BD70B5002400220023058C4FF6EF763B
:102FA00035400584028C8388048B48F6FF752C40DD
:102FB0004FF6FF452C400D884FF6FF7606EA0525B3
:102FC0002C434FF6DF752A400D8906EA05152A4382
:102FD0004D8806EA05152A43444DA84202D0494DC2
:102FE000A8421DD14FF67F752A404D894FF6FF76D6
:102FF00006EA05152A434FF6BF752A408D8806EA72
:1030000005152A434FF6FF352B404FF2FF752B4035
:103010008D8906EA85052B43CD8906EA85052B4374
:1030200083800483CD880587028470BD70B5002439
:1030300000220023058C4FF6FF6635400584028C84
:103040008388848B4FF68F752C404FF6FC752C408F
:103050000D882C434FF6FF552A400D894FF6FF7619
:1030600006EA05252A434D8806EA05252A431F4D11
:10307000A84202D0234DA8421DD14FF2FF752A402D
:103080004D894FF6FF7606EA05252A434FF6FF35B0
:103090002A408D8806EA05252A434EF6FF752B4007
:1030A0004DF6FF752B408D8906EA05152B43CD891A
:1030B00006EA05152B4383808483CD8885870284A7
:1030C00070BD70B5002200230024058C4EF6FF76FB
:1030D00035400584038C8488828B48F6FF752A402E
:1030E0004FF6FF452A400D8820E00000002C0140EB
:1030F0000004004000080040000C004000100040A8
:103100000014004000340140004C014000500140D8
:103110000054014000180040001C00400020004006
:103120000040014000440140004801404FF6FF7656
:1031300006EA05252A434DF6FF752B400D8906EA60
:1031400005352B434D8806EA05352B43FA4DA84239
:1031500002D0FA4DA84208D14BF6FF752C408D895C
:103160004FF6FF7606EA85152C4384808283CD884E
:10317000A0F84050038470BD828B4FF2FF331A4099
:103180008283828B4FF6FF7303EA01231A43828303
:103190007047F0B50C461546002200210026078C2A
:1031A0004EF6FF7C07EA0C070784828B018C4FF6F2
:1031B000FF7707EA043640F6FF473A404FF6FF77BD
:1031C00007EA05273A434FF6FF7707EA03373A4302
:1031D000D94FB8420ED0D94FB8420BD0B0F1804F82
:1031E00008D0D74FB84205D0D64FB84202D0D64FFC
:1031F000B84206D14DF6FF77394046F4805739433F
:1032000005E047F6FF57394044F48057394382833D
:103210000184F0BD828B4FF6F3731A408283828B58
:103220000A4382837047F0B50C4615460022002100
:103230000026078C4FF6FF6C07EA0C070784828B89
:10324000018C4FF6FF7707EA04264FF60C773A40D9
:103250004FF6FF7707EA03172F433A43B64FB842BA
:103260000ED0B64FB8420BD0B0F1804F08D0B44F5B
:10327000B84205D0B34FB84202D0B34FB84206D1DE
:103280004FF6FF57394046F48077394305E04FF257
:10329000FF57394044F48077394382830184F0BD7D
:1032A000028B4FF2FF331A400283028B4FF6FF73FB
:1032B00003EA01231A4302837047F0B50C46154612
:1032C000002200210026078C4FF6EF7C07EA0C074E
:1032D0000784028B018C4FF6FF7707EA041640F64D
:1032E000FF473A404FF6FF7707EA03373A434FF676
:1032F000FF7707EA05273A438F4FB8420ED08F4F2A
:10330000B8420BD0B0F1804F08D08D4FB84205D0F5
:103310008C4FB84202D08C4FB84206D14FF6DF77BF
:10332000394046F01007394305E04FF65F773940E2
:1033300044F01007394302830184F0BD028B4FF63D
:10334000F3731A400283028B0A4302837047F0B57D
:103350000C46154600220021068C4FF6FE773E40B3
:103360000684028B018C4FF60C7632407E1C06EAF6
:1033700003162E433243704EB0420ED06F4EB04211
:103380000BD0B0F1804F08D06D4EB04205D06D4EDD
:10339000B04202D06C4EB04206D14FF6FD763140BD
:1033A00044F00106314305E04FF6F576314044F034
:1033B0000106314302830184F0BD70B505460C4619
:1033C0005D4885420ED05D4885420BD0B5F1804FF7
:1033D00008D05B48854205D05A48854202D05A48F9
:1033E000854200D100E000BF208850B92389A2881F
:1033F00061882846FFF7ABFFE1882846FFF79EFF6C
:1034000025E0208804280AD12389A28861882846DB
:10341000FFF753FFE1882846FFF742FF17E02088B7
:1034200008280AD12389A28861882846FFF7FBFE75
:10343000E1882846FFF7EEFE09E02389A28861882B
:103440002846FFF7A6FEE1882846FFF795FE70BDE7
:103450002DE9F04105460C4600260127608808B991
:10346000022600E00026A088012801D1022700E002
:1034700001272088A0B92389A28861882846FFF700
:1034800066FFE1882846FFF759FF23893A4631460F
:103490002846FFF712FFE1882846FFF701FF13E0F7
:1034A0002389A28861882846FFF707FFE18828461C
:1034B000FFF7F6FE23893A4631462846FFF747FFD5
:1034C000E1882846FFF73AFFBDE8F0810A884B887B
:1034D0001A438B881A43CB881A430B891A434B89AA
:1034E0001A438B891A43A0F8442070474FF6FF71A6
:1034F000818000210180C1804180017270470021DC
:10350000018041808180C180018141818181C181AF
:103510007047002101804180012181800021C1800C
:10352000018170470021018041808180C18001813B
:103530004181818170470000002C0140003401402E
:103540000004004000080040000C004021B1028847
:1035500042F00102028004E002884FF6FE731A4036
:103560000280704731B1B0F8442042F40042A0F824
:10357000442005E0B0F84420C2F30E02A0F8442035
:1035800070471AB183890B43838102E083898B439F
:10359000838170478182704741EA0203A0F8483076
:1035A00070471AB183890B43838102E083898B437F
:1035B0008381704701894FF6F8721140018170478D
:1035C0000A46002101894FF68F731940114301818A
:1035D000704730B504460D4629462046FFF7F0FFF8
:1035E000208940F00700208130BD2DE9F0410446DC
:1035F0000D4616461F46602D06D13B460122314638
:103600002046FFF75AFE05E03B46012231462046A0
:10361000FFF79DFE29462046FFF7D2FF208940F0A4
:1036200007002081BDE8F08130B50C4600210189FA
:10363000C9B24FF6FF7505EA032515432543294313
:10364000018130BD2DE9F04105460E4617469846EA
:10365000002443463A4631462846FFF7E5FF2C89C9
:103660004FF6F870044044F007044FF68F700440A2
:1036700044F070042C81BDE8F081F0B504460D469D
:1036800016461F463B46324629462046FFF7CCFFEA
:10369000208940F480402081F0BD018582827047FE
:1036A0000A46002101884FF68F73194011430180AB
:1036B0007047F0B50C4615461E4600210022002337
:1036C0000189028B038C4FF6F877394021434FF67E
:1036D000FC473A4040F201173A434FF6DD773B4052
:1036E0004FF6FF7707EA06172F433B43018102831A
:1036F0000384F0BD0A460021018B4FF68F731940F9
:103700001143018370470A460021018B48F6FF737D
:1037100019404FF6FF7303EA0223194301837047F0
:103720000A460021818B4FF68F7319401143818324
:1037300070470A460021818B48F6FF7319404FF607
:10374000FF7303EA022319438183704721B1028882
:1037500042F08002028004E002884FF67F731A4034
:103760000280704721B1828842F00402828004E026
:1037700082884FF6FB731A408280704721B182889D
:1037800042F00802828004E082884FF6F7731A4004
:103790008280704721B1828842F00102828004E079
:1037A00082884FF6FE731A40828070470A460021D5
:1037B000018B4FF6F77319401143018370470A4696
:1037C0000021018B4FF2FF7319404FF6FF7303EA9C
:1037D00002231943018370470A460021818B4FF66B
:1037E000F77319401143818370470A460021818B8A
:1037F0004FF2FF7319404FF6FF7303EA0223194398
:10380000818370470A460021018B4FF6FB731940F4
:103810001143018370470A460021018B4FF6FF33A5
:1038200019404FF6FF7303EA0223194301837047DF
:103830000A460021818B4FF6FB73194011438183A7
:1038400070470A460021818B4FF6FF3319404FF62F
:10385000FF7303EA02231943818370470A4600215C
:10386000018B4FF67F7319401143018370470A465D
:103870000021018BC1F30E014FF6FF7303EA02230F
:103880001943018370470A460021818B4FF67F73ED
:1038900019401143818370470A460021818BC1F38F
:1038A0000E014FF6FF7303EA022319438183704729
:1038B0000A460021018C4FF6FD7319401143018423
:1038C00070470A460021018C4FF6F77319401143E7
:1038D000018470470A460021018C4FF6DF731940BE
:1038E0004FF6FF7303EA02131943018470470A4637
:1038F0000021018C4FF67F7319404FF6FF7303EAE6
:1039000002131943018470470A460021018C4FF6C7
:10391000FF5319404FF6FF7303EA02231943018452
:1039200070470A460021018C4FF2FF7319404FF691
:10393000FF7303EA02231943018470470A460021FA
:10394000018C4DF6FF7319404FF6FF7303EA023303
:1039500019430184704730B5002301248C40A3B281
:10396000048C9C430484048C02FA01F5ADB22C4310
:10397000048430BD30B5002304248C40A3B2048CF1
:103980009C430484048C02FA01F5ADB22C430484F8
:1039900030BD70B5034600200024184618300125BC
:1039A0008D40ACB21D8CA5431D8409B1082909D1F5
:1039B00000EB6100056825F070050560056815439A
:1039C00005600EE00D1FC5F34E052844056825F47B
:1039D000E045056005684FF6FF7606EA02263543A6
:1039E000056070BD21B1028842F00202028004E04D
:1039F00002884FF6FD731A400280704721B1028899
:103A000042F00402028004E002884FF6FB731A4081
:103A10000280704721B1828842F08002828004E0F7
:103A200082884FF67F731A408280704702884FF673
:103A3000F7731A40028002880A4302807047828826
:103A40004FF68F731A40828082880A4382807047C3
:103A500002894FF6F8731A40028102890A430281F3
:103A6000704702894FF67F731A40028102890A4328
:103A700002817047818470478185704781867047D5
:103A80000187704781877047A0F84010704702880F
:103A90004FF6FF431A40028002880A4302807047B3
:103AA0000146888E70470146088F70470146888F0F
:103AB00070470146B1F8400070470146888C704756
:103AC0000146088D704702460020138A0B400BB157
:103AD000012000E000207047CA430282704730B5E1
:103AE0000246002000230024158A05EA0103958977
:103AF00005EA010413B10CB1012000E0002030BD43
:103B0000CA4302827047000010B50446F748844259
:103B100009D101214805FEF73AFE00214FF40010BB
:103B2000FEF735FE08E001218805FEF730FE002192
:103B30004FF48000FEF72BFE10BD2DE9F04385B059
:103B400004460D460026B1460427DFF8A483A68864
:103B50004FF6C07006406846FEF785FDDDF8088028
:103B6000E448B8FBF0F01FFA80F946EA0906A6809F
:103B700020884FF6FE71084020800026DE49286824
:103B800088420CD828684000B8FBF0F087B2042FB8
:103B900000DA04273E4309F10100208427E0E88889
:103BA0004BF6FF71884206D1286800EB4000B8FB55
:103BB000F0F087B209E0286800EBC00101EB0010CB
:103BC000B8FBF0F087B247F48047C7F30B0008B9A1
:103BD00047F0010747F4004006434FF4967009FB95
:103BE00000F04FF47A7190FBF1F0401C2084A68322
:103BF000208840F00100208026884FF6F5300640EE
:103C0000A8886989084306432680A889298908432A
:103C1000208105B0BDE8F08341F2883101600021C8
:103C200081804BF6FF71C1800021018141814FF4F9
:103C300080418181704721B1028842F001020280F7
:103C400004E002884FF6FE731A400280704721B1EB
:103C5000828842F40062828004E082884FF2FF731F
:103C60001A408280704721B1828842F4805282805B
:103C700004E082884EF6FF731A408280704721B1BB
:103C8000028842F48072028004E002884FF6FF63EB
:103C90001A400280704721B1028842F4007202800B
:103CA00004E002884FF6FF531A400280704721B1AA
:103CB000028842F48062028004E002884FF6FF33FB
:103CC0001A40028070470A46002181894FF601732D
:103CD000194002F0FE0319438181704721B18289A6
:103CE00042F00102828104E082894FF6FE731A409D
:103CF0008281704721B1028842F04002028004E0D4
:103D000002884FF6BF731A40028070471AB1838849
:103D10000B43838002E083888B438380704701825A
:103D200070470146088AC0B2704712B141F00101E4
:103D300002E04FF6FE7319400182704708B5024653
:103D4000002000900092009808440090009800889D
:103D500008BD21B1028842F40042028003E00288DB
:103D6000C2F30E0202807047B1F5006F04D10288E1
:103D700042F40062028004E002884FF2FF731A40AE
:103D800002807047B1F5005F04D1028842F400520E
:103D9000028004E002884DF6FF731A4002807047EB
:103DA00021B1028842F48052028004E002884EF67B
:103DB000FF731A4002807047B1F5006F04D102888A
:103DC00042F40062028004E002884FF2FF731A405E
:103DD0000280704721B1028842F02002028004E094
:103DE00002884FF6DF731A40028070470146088B45
:103DF0000012704721B1028842F01002028004E0F4
:103E000002884FF6EF731A400280704721B902888A
:103E100042F08002028004E002884FF67F731A406D
:103E200002807047B1F5804F05D0828B4BF6FF734F
:103E30001A40828303E0828B42F48042828370477F
:103E400070B502460024002500230020958A138BBC
:103E50001B0445EA030626F07F4404EA01068E426D
:103E600001D1012000E0002070BD10B50146002006
:103E7000002300228B8A0A8B120443EA020424F0F6
:103E80007F4010BD0CB50246002000230193009333
:103E900000920B0F019321F07F41019B1BB1009B0E
:103EA0001433009303E0090C009B18330093009B2C
:103EB0001B680B400BB1012000E000200CBD00226C
:103EC00021F07F42D3438382704730B50246002001
:103ED0000023948801F0E06504EA154321F07F4156
:103EE000948A0C4054B14BB1012008E000540040CA
:103EF00000127A0040420F00A0860100002030BD71
:103F0000002221F07F42D34383827047002044493E
:103F10000860091D0860091D0860091D0860414806
:103F20003F4914310860704700213D498279002AD9
:103F30003AD00A46126803689A430B461A600A1D73
:103F4000126803689A430B1D1A60027911440A68CB
:103F500003681A430A60324A0832126803689A43B7
:103F60002F4B08331A601A1D126803689A432C4BB2
:103F70000C331A604279102A0ED11A1F1268036896
:103F80001A43274B08331A601A1D126803681A4334
:103F9000234B0C331A600DE02149427911440A6821
:103FA00003681A430A6005E0027911440A6803684D
:103FB0009A430A6070470021016001710C21417130
:103FC0000021817170471649103109680143144A74
:103FD00010321160704701460020114A14321268F5
:103FE0000A400AB1012000E0002070470C4914315A
:103FF00008607047014600200022094B1B6803EA55
:104000000102074B14331B680B4013B10AB10120A6
:1040100000E000207047024914310860704700003A
:1040200000040140FFFF0F00704710B54C1084EAF8
:10403000530404D54042C1F1000138BF491E1B4260
:1040400004D55242C3F1000338BF5B1E00F015F8DF
:1040500014F0804F04D04042C1F1000138BF491E26
:1040600014F0004F04D05242C3F1000338BF5B1E6E
:1040700010BD704770477047704753EA020C00F05C
:1040800069802DE9F04B4FF00006002B1FBFB3FAFB
:1040900083F503FA05F424FA05F65E4012BF1643D1
:1040A000B2FA82F502FA05F4C5F120051EBF22FA24
:1040B00005FC44EA0C04203556EA044C4FEA14444B
:1040C00018BF641C4FF000084FF00009904271EBDC
:1040D000030C39D3002919BFB1FA81F701FA07F6A9
:1040E000B0FA80F700FA07F6C7F120071EBF20FAE2
:1040F00007FC46EA0C062037B6FBF4FCA7EB0507E5
:10410000103F07F01F0BCBF120060CFA0BFB2CFA2B
:1041100006F644BFB3460026202FA4BF5E464FF0EC
:10412000000B5BEA060C08BF4FF0010B19EB0B0903
:10413000ABFB027C48EB0608C01B06FB02CC0BFB6A
:1041400003CC71EB0C01C1E70B46024641464846E1
:10415000BDE8F08B13B54FF000004FF00001AFF356
:104160000080BDE81C40704710B500F009F80068F9
:1041700010BD10B5044600F003F8046010BD000047
:10418000004870475803002000487047580300203B
:104190007546FFF7F9FFAE4605006946534620F025
:1041A0000700854618B020B5FDF79CFFBDE820400C
:1041B0004FF000064FF000074FF000084FF0000BE3
:1041C00021F00701AC46ACE8C009ACE8C009ACE896
:1041D000C009ACE8C0098D4670470446AFF30080C3
:1041E0002046FCF70CF8490050EAC12018BF042013
:1041F0004A0D18BF40F0010040F2FF72B2EB515F70
:1042000008BF40F00200012808BF052070472DE9D3
:10421000F0414F1E00EBC7010446D1E900011546ED
:104220001E4637F006020DD02A46334600F0C4FC85
:104230007F1E04EBC703D3E9002300F06FFA37F0C9
:104240000602F1D1022F25D0042F13D0062F18BF5C
:10425000BDE8F0812A46334600F0AEFCD4E90A23DB
:1042600000F05CFA2A46334600F0A6FCD4E90823A5
:1042700000F054FA2A46334600F09EFCD4E90623A7
:1042800000F04CFA2A46334600F096FCD4E90423A9
:1042900000F044FA2A46334600F08EFCD4E90223AB
:1042A00000F03CFA2A46334600F086FCD4E90023AD
:1042B000BDE8F04100F032BA024A0020110701F0D7
:1042C000F2BA000001FDFFFF2DE9F84F04460D464C
:1042D00021F0004000917449814213DC7349884207
:1042E00001DC08D13CB120462946BDE8F84F4FF02B
:1042F000010201F0D8BA6E48002DCCBF6D496E495D
:10430000BDE8F88F6D49814211DD6D498142D8BF0A
:104310004FF0FF366DDD20462946FFF764FF042885
:1043200008BFFFF7C9FF20462946BDE8F88F654959
:10433000654F25F00045814233DD6449814219DD36
:10434000002632464FF080432046294600F0E6F929
:1043500080468A4601222046294601F0A4FA00221E
:104360003B4600F019FE4246534600F087FA0446E9
:104370000D463EE001260022BA463B46204629462D
:1043800000F0CCF980460F460022534620462946CD
:1043900000F002FE42463B4600F070FA04460D462D
:1043A00027E04B4981421BDDDFF8288102260022ED
:1043B00043462046294600F0FFFB00223B4600F022
:1043C000ADF907468A46002243462046294600F0BA
:1043D000E3FD3A46534600F051FA04460D4608E024
:1043E000032622462B4600203B4900F047FA0446AC
:1043F0000D4622462B461046194600F0DDFB8B4643
:10440000824602460B4600F0D7FB07460246334879
:1044100088460B4606217844FFF7F9FE52465B4674
:1044200000F0CAFB82462E488B463A464346052199
:104430007844FFF7ECFE3A46434600F0BDFB0246E7
:104440000B46002E504659460CDA00F067F922461A
:104450002B4600F0B1FB01B022462B46BDE8F04FE1
:1044600000F0A8BC00F05AF922462B4600F0A4FB4D
:104470001C4A7A4402EBC603D3E9002300F08CFD0A
:1044800022462B4600F088FD174A7A4402EBC60309
:10449000D3E9002300F08EFC009A002AB8BF81F017
:1044A0000041BDE8F88F0000000010440000F07FDC
:1044B000182D4454FB21F93FFB21F9BF0000DC3FDC
:1044C0000000203E0000F33F0000F03F0000E63F08
:1044D000008003400000F83F0000F0BF8615000098
:1044E00044150000E2140000AA1400002DE9F04D6C
:1044F0009446CCF1000423F000464CEA0404524FE9
:1045000046EAD4749A46884621F00042BC4206D856
:10451000454240EA050442EAD474BC4204D9BDE8ED
:10452000F04D624600F0FAB8AAF14055A5F17F655A
:1045300055EA0C040BD0022404EAAA74434DDFF8B8
:1045400010E144EAD87452EA000B04D00CE0BDE854
:10455000F04DFFF7B9BE002C14BF012CBDE8F08D63
:10456000022C30D0032C32D056EA0C0B0AD0BE42BB
:1045700020D1BA4209D126F0804622F0804233464B
:10458000114617E000291ADB25E0DFF8C8B0FB442C
:10459000002C04BFDBE90001BDE8F08D012C02BF57
:1045A000DBE9000181F00041BDE8F08D022C0AD06A
:1045B000032C0CD0BA4212D1B8F1000F0BDA234809
:1045C0002549BDE8F08D28462449BDE8F08D2846F0
:1045D0007146BDE8F08D1D482149BDE8F08D921B64
:1045E00012153C2AC4BF19481D490EDCBAF1000F50
:1045F000BEBF12F13C0F0020014606DB624600F010
:104600003DF921F00041FFF75FFE002C08BFBDE837
:10461000F08D012C04BF81F00041BDE8F08D114AFE
:10462000114B022C07D000F0B7FC2A46BDE8F04D34
:104630000A4B00F0B1BC00F0AFFC2A46BDE8F04DDB
:10464000064B00F0B7BB00000000F07F182D44546B
:10465000FB2109C03E140000FB21F9BFFB210940EA
:10466000FB21F93F075C143326A6A13C2DE9F0415C
:1046700006460F4600F0AAFB04000D4618BF0120B5
:10468000284320F00040C0F17F6000F1E040C00FFF
:104690000ED0301C18BF0120384320F00040C0F17C
:1046A0007F6000F1E040C00F04BF0120FFF761FD13
:1046B00020462946BDE8F08121F00042A2F1605277
:1046C000B2F5801F01F0004328BFD2F17F6C0BD9F7
:1046D0005FEA001C43EAC20242EB507018BF704709
:1046E00028BF20F001007047B2F5801FBCBF1846FC
:1046F00070474FEA410C1CF5001F02D2084600F03B
:10470000F4BF70B500F002FB00000089FFF7F6BFB0
:104710004FF00040A0F580007047000010B591EA0E
:10472000030F48BF83F0004300F13E84841A71EB0D
:10473000030C05D2121943EB0C03001B61EB0C01B7
:10474000DFF824E14FEA1154A4EB135C1EEA430F97
:1047500018BF9EEA445F73D023EA0E03DCF1200EFB
:1047600021EA045143F4801332D322FA0CFE10EBF9
:104770000E0023FA0CFE41EB0E01CCF1200E03FAE1
:104780000EFE10EB0E0051F10001B1F5801FCCF1CF
:10479000200E32D201EB045112FA0EF2BDE81040A5
:1047A00058BF7047401C38BF5FEA420218BF7047CD
:1047B000002814BF20F0010041F100014FEA41033D
:1047C00013F5001F38BF7047A1F1C04100F0ECBAEB
:1047D000012A43EB0302ACF1200CDCF11F0E32BFC7
:1047E0004FF0000E23FA0CF310EB030041EB0451E1
:1047F000B4EB115FD0D0A1EB045101F58011490851
:104800005FEA300001EB04510ED350F1000038BFD5
:1048100012FA0EFE08D1BDE81040C9E7401C38BFAF
:104820005FEA4202CAD1C3E7BDE810404FEA410344
:1048300013F5001F38BF7047A1F1C04100F0B4BAB2
:104840009EEA445F08D011EA5E0FBDE8104004BF45
:1048500001F0004100207047BDE8104070B500F045
:1048600055FA00BF64FBBE3E0000E0FF02494FF076
:10487000000000F0E6BF00BF0000F87F2DE9C04156
:1048800030B4DFF8A0C23CEA111418BF3CEA13149C
:1048900000F0EC8081EA03051CEA111444EAD574A7
:1048A00018BF1CEA131500F0C780A4EB05044FF0F5
:1048B000004545EAC12145EAC32341EA505143EA94
:1048C000525304F17F74994204F500344FEAC0203A
:1048D0004FEAC22208BF904200F09C804FEA136565
:1048E0000FF24016765D4FEA134506FB05F7C7F158
:1048F000807706FB07F74FEAD737A7FB03687642B6
:10490000C8F58038A7FB06CE38BFA8F1010807FB21
:1049100008E64FF0000EA6FB028CE6FB03CEDCF1AE
:10492000000CCEF1004E38BFAEF1010EA6FB0C58C4
:104930004FF000074FF00005E6FB0E87A1FB08C60D
:10494000A0FB07CE16EB0E0645F10005E1FB07655F
:1049500015F1E04E7EBFA4F580345FEA46066D4156
:1049600016F1800745F100054FEA17274FEA066662
:1049700047EA0567A6F1DE46B6F1805F4FEA1525E6
:104980001FD9384624F0010C05EBC471BCF1FE6F51
:1049900001EB0C1102D8F0BCBDE8008124425CBFE1
:1049A00001F5801E9EEAC47F02D4F0BCBDE8008100
:1049B000244238D4F0BCA1F1C041BDE8004100F070
:1049C000F3B94FEAD22242EA43524FEAD323A7FB7C
:1049D00002864FEAD02040EA415007FB03661EEAF8
:1049E0000E0F4FEAD12105FB026658BFA6EB005619
:1049F000B6EB00564FEA520E4EEAC37E18EB0E0E8F
:104A000056EB530EBDD518EB02085E417F1C55F1E5
:104A10000005B6E74FF480154FF000074FF0000691
:104A20004FF00008ADE7F0BC4FF0000001F1C041CD
:104A300001F00041BDE8008111EA0C1F0CEA1315DA
:104A400000D00CE013EA0C1F00F025804FF00000AE
:104A5000F0BC81EA030101F00041BDE80081F0BC37
:104A600081EA0301BDE8004100F09EB9F0BCBDE859
:104A7000004170B500F04AF9097EFC3E00F007B82D
:104A800081EA03014FF0000001F00041704781EA24
:104A9000030100F089B9F0BC4FF000002249BDE8E5
:104AA00000417047FFFDFBF9F7F5F4F2F0EEEDEB96
:104AB000E9E8E6E4E3E1E0DEDDDBDAD8D7D5D4D31C
:104AC000D1D0CFCDCCCBCAC8C7C6C5C4C2C1C0BF68
:104AD000BEBDBCBBBAB9B8B7B6B5B4B3B2B1B0AF6E
:104AE000AEADACABAAA9A8A8A7A6A5A4A3A3A2A152
:104AF000A09F9F9E9D9C9C9B9A999998979796950D
:104B000095949393929191908F8F8E8E8D8C8C8BA8
:104B10008B8A898988888787868585848483838230
:104B2000828181800000FF070000F87F4FEA410387
:104B30004FEA5353A3F58063D3F11E03C8BFD3F1EB
:104B4000210C0CDD4FF0004242EAC12242EA5052F1
:104B500032FA03FC8CEAE17CACEBE1707047102B7D
:104B6000C4BF0020704703F5787CBCF1FF3F04D040
:104B70006FF0004282EA2100704770B500F0C6F87D
:104B80004992248000207047F2E710F0004248BFAD
:104B90004042B0FA80F310FA03F10AD0C3F11D03CA
:104BA00003F580634FEA415002EB035202EBD1213F
:104BB00070474FF000007047DFF848C170B51CEA3D
:104BC000111E1EBF1CEA13159EEA0C0F95EA0C0F6E
:104BD00000F06F8081EA030423EA4C134EEAD47E8E
:104BE00021EA4C1141F4801143F48013AE44A1FB3F
:104BF000024CA0FB0365AEF17F7E361955EB0C0528
:104C0000A1FB034C4CF10003A0FB021C16EB0C06AD
:104C1000654153F10003094218BF46F0010613F441
:104C2000007F0BD14FEA03314FEA0530340341EAEC
:104C3000155140EA16506FF003020AE04FEAC32113
:104C40004FEAC520F40241EA555140EA56506FF050
:104C5000020202EB2E4201EB025585EACE710AD028
:104C60005FEA440C18BF24F0004450F1000041F109
:104C7000000120EAD47040F2FE7C624500D270BD93
:104C8000A84214BF4FF080444FF04044002E08BFAC
:104C90000024BEF1806FA8BFA1F1C041BDE8704003
:104CA00080F282804FF0000001F1C04101F000412C
:104CB00070479EEA0C0F0CEA131518BF95EA0C0F0B
:104CC00006D04FF0000081EA030E0EF0004170BDE7
:104CD00000F01CF88900013E00F007B800F009B8A8
:104CE0004FEA430C5FEA5C5C08D081EA030100F004
:104CF0005BB84FEA410C5FEA5C5CF6D14FF0000014
:104D0000014970470000FF070000F87F0EF1020E16
:104D10002EF0030E5EF8046B364205D4012A43EBF5
:104D2000030515F5001F12D8012841EB010C1CF5F5
:104D3000001F0CD80ED14FEAD17C15F5001F0CEBEB
:104D40004C0C0CF1020C08BF4CEBD37C04E04FF090
:104D5000080C01E04FEAD37C0CEB4C0526FA05F673
:104D600006F00706B6F1040C06D20EEB860CBDE881
:104D700070404CF0010C6047DFE80CF0090B0202B8
:104D80004FF000414FF00000A1F5002170BD194621
:104D90001046012851EB010418BFD4F5001484BF5C
:104DA000002001F0004170BD0808A0F500114FEA95
:104DB0003101704791EA030F10B581F000413FF5D2
:104DC000B5AC83F0004300F0EFB800002DE9F041EE
:104DD00001F5801CBCF5001FC0F2C3804FEA115CD6
:104DE00021EA0C510CF1FD0C41F480115FEA5C0CDE
:104DF0000CF5C07C01D3400049413DA4890241EA41
:104E0000905187028E0E0A0CA45D04FB04F602FB8F
:104E100006F6C6F14046A4FB0662F60D46EA4226B7
:104E200006FB06F4A4FB01235242C3F1404338BF02
:104E30005B1EA6FB02420024E6FB0324D20B42EADF
:104E40004446A6FB0623A1FB02E2A3FB07E4A41849
:104E50004FF0000252F10002E3FB01426442C2F152
:104E6000404E38BFAEF1010EA6FB04234FF0000206
:104E7000E6FB0E32A2FB03464FF00004B61954F1D4
:104E80000004E2FB0264A1FB06E6A4FB07E816EBC4
:104E900008064FF0000858F10008E4FB016876426C
:104EA000C8F1405838BFA8F10108A2FB06E4A3FBF3
:104EB00008E52D194FF0000454F10004E2FB0854FA
:104EC000A1FB05E6A7FB04E818EB06084FF0000677
:104ED00056F10006E1FB048618F1200556F10006A4
:104EE000A809A8F11B08B10908F03F08B8F10A0F9A
:104EF00040EA86601CD901EB0C51BDE8F08100BF8F
:104F0000FCF5EEE8E2DDD8D3CFCBC7C3C0BDB9B660
:104F1000B4B1AEACA9A7A5A3A19F9D9B9A98969565
:104F20009392908F8D8C8B898887868584838281EC
:104F3000A0FB006800FB01F208EB4208B8EB8728F1
:104F400007D5341858EB0104D5D5401C51F10001A8
:104F5000D1E7341A78EB0104CDD4401E71F1000181
:104F6000C9E75FEA4C0C5FEA9C5C0DD105D34FF0BA
:104F7000000001F00041BDE8F081BDE8F04170B5EE
:104F8000FFF7C4FE6DDBFFBEBDE8F0414FF000004F
:104F9000004970470000F87F10B591EA030F48BF41
:104FA00083F000433FF5C2AB841A71EB030C07D2C8
:104FB00012198CF0004C43EB0C03001B61EB0C014D
:104FC000DFF8A4E14FEA1154A4EB135C1EEA430F8F
:104FD00018BF9EEA445F00F0B08023EA6E0352429D
:104FE00021EA0451C3EB6E0338BF5B1EDCF1200ED7
:104FF00025D322FA0CFE10EB0E0043FA0CFE41EB17
:105000000E01CCF1200E03FA0EFE10EB0E0051F152
:105010000001CCF1200E29D412FA0EF201EB04515A
:10502000BDE8104058BF7047401C1CBFB2F1004F94
:10503000704700280CBF491C20F00100704712EB9C
:10504000020E43EB030218BF4FF0010E4EEA42027C
:10505000ACF1200CDCF11E0E54D943FA0CFE10EB1F
:105060000E0051F1FF31CCF11E0ED5D50EF1010E1F
:1050700012FA0EFE404141EB010101EB445C5FEA94
:105080005C5C10D910EBDE7001EB045138BFBEF14F
:10509000004FBDE8104018BF704700280CBF491CE6
:1050A00020F00100704730D24FEAD42C11F50011E6
:1050B00024F400641BD0B1FA81F20B3AA41AA41EA6
:1050C000D2F12003914030FA03F31943904001EBF1
:1050D000CC71002C01EB0451BDE81040A8BF704713
:1050E00001F1C0414FF0000001F000417047B0FAFB
:1050F00080F310FA03F100D110BDE41A173C480503
:10510000C90AE4E701EB045110BD491001EB045159
:10511000BDE810404FEA300002E04FF00001704758
:105120004A0008BF0042F8D0B2F5001F28BF704700
:1051300001F000414FF0000070479EEA445F07D045
:1051400011EA5E0FBDE8104004BF00210020704747
:10515000BDE8104070B5FFF7D9FD00BF40DFF63E57
:1051600083F00041104670470000E0FF43004FEA23
:10517000D30C4FEA3C0C43401FBF40070CF1605179
:1051800013F0FE4F70471CF0006F03D100200CF0AD
:10519000004170470CF0004343EA507010B540EAFC
:1051A000CC0000F05CFA00BF000000924FEA000162
:1051B000FFF7FABD4FF000414FF00000A1F50021CC
:1051C0007047000090EA010F48BF81F0004100F1F4
:1051D000CA82421A3CBF801A89184FEAD0524FF057
:1051E0007F4C1CEA410FA2EBD15318BF9CEA026F1F
:1051F00000F03B804FF0004C4CEA00204CEA0121CB
:1052000021FA03FC10EB0C0C1ED202F1FF325FEA14
:105210001C2040EBC25038BF70471CF07F0F4FEA94
:10522000400C18BFBCF17F4F38BF7047C3F120035B
:10523000994008BF20F00100BCF17F4F38BF704794
:10524000A0F1C04000F051BA4FEA3C00000A40EB28
:10525000C25028BF1CF0FF0F4FEA400CE6D018BF29
:10526000BCF17F4F38BF7047EAE79CEA026F05D078
:1052700010EA5C0F08BF00F00040704710B500F066
:10528000EEF900BF64FBBE3E401058BFC0F1404085
:10529000491058BFC1F140418142EFF3008070478F
:1052A0004FF47F0C1CEAD0121EBF1CEAD11392EA05
:1052B0000C0F93EA0C0F00F0858090EA010F48BFB5
:1052C00042F4807240F4000C41F400002CF07F4165
:1052D00020F07F4000B58142A2EB03020FF2081CD0
:1052E000ACEB504EC0F100009EF800E04FEA4E0ECD
:1052F00000FB0EFC38BF49004FEA2C1C02F5FA02F5
:105300000CFB0EF34FEACE1E4FEA112C4FEAC121DF
:105310000EEB635E42EB22420EFB0CFC4FEA1C5389
:1053200000FB03114FEA112C4FEA01310EFB0CFC7C
:105330004FEADC4C00FB0C11C14228BF09184CEBB2
:1053400003335DF804EB10EB410143EBC250B2F5BF
:105350007C0F38BF704729D512F0F00F1CBF00F149
:10536000C04000F0004070470081828384858687BA
:1053700088898B8C8D8E8F919293959697999A9C14
:105380009D9FA0A2A3A5A7A8AAACAEB0B2B3B5B783
:10539000B9BCBEC0C2C5C7C9CCCED1D4D7D9DCDF59
:1053A000E2E6E9ECF0F3F7FAFE0000004FEA400C09
:1053B0000CF1807CBCF17E4F28BF7047B0F1C0403B
:1053C00000F093B990EA010F0CEAD11348BF42F400
:1053D0008072624538BF634507D213F47F0F16D041
:1053E00080EA010000F00040704710B500F037F986
:1053F000097EFC3E00F005B880EA010000F00040A4
:10540000704780EA010000F0004000F06EB912F42D
:105410007F0F04BF0248704780EA010000F065B9C1
:105420000000C07F50EA010C00F113801CF5000F52
:1054300058BFBCF5000F01D48842704707D710F55C
:10544000000F58BF11F5000F15D4884270478942EC
:1054500070471CF5000F04D5BCF5000FF7D581424D
:1054600070474FF0807C1CEB400F38BF1CEB410FA6
:1054700001D28142704710B500F0F1F89224490042
:105480004FF000504FF08051FFF7FEBE41000B0E71
:10549000D3F19E0208D950F400034FEA032323FA04
:1054A00002F048BF4042704710B500F0D8F800BF86
:1054B00049922480002070476FF0004282EA200069
:1054C0007047000010F0004148BF4042B0FA80F33E
:1054D00010FA03F2C3F19D030BD051EAC35101EB63
:1054E0001220530638BF704700F1010008BF20F0BA
:1054F0000100704750EA010C00F113801CF5000F09
:1055000058BFBCF5000F01D48842704707D710F58B
:10551000000F58BF11F5000F15D48842704789421B
:1055200070471CF5000F04D5BCF5000FF7D581427C
:1055300070474FF0807C1CEB400F38BF1CEB410FD5
:1055400001D28142704710B500F089F892244900D9
:105550004FF000504FF08051FFF796BE4FF47F0C94
:105560001CEAD0121EBF1CEAD11392EA0C0F93EA78
:105570000C0F00F0478090EA010F48BF42F48072A0
:105580004FF0004C4CEA00204CEA012102EB0302F0
:10559000A0FB0113A2F50002002918BF43F001038C
:1055A0005B0028BF4FEA330342EB22425FEA132C31
:1055B0004CEBC2502EBFBCEB436FB2F57C0F704773
:1055C0004FEA036CBCF1004F08BF20F00100B2F5B8
:1055D0007C0F38BF70470BD582F0FF0212F5803F79
:1055E000C8BF704700F1C040D8BF00F0004070470E
:1055F00000F5000C5FEA4C0C48BF7047B0F1C040AA
:1056000000F073B890EA010F0CEAD11348BF42F4DE
:105610008072624538BF634504D280EA010000F021
:105620000040704710B500F01AF800BF8900013E35
:1056300000F007B800F009B85FEA410C5FEA1C6CA3
:1056400008D080EA010000F050B85FEA400C5FEA41
:105650001C6CF6D14FF00040A0F5800070470EF1B1
:10566000020E2EF0030E5EF8044B244204D44FEADF
:105670004102B2F17F4F11D84FEA4003B3F17F4F9F
:105680000CD80ED14FEAD07CB2F17F4F0CEB4C0C12
:105690000CF1020C08BF4CEBD17C04E04FF0080C7D
:1056A00001E04FEAD17C0CEB4C0324FA03F404F044
:1056B0000704B4F1040C06D20EEB840CBDE81040D4
:1056C0004CF0010C6047DFE80CF0070802024FF0D5
:1056D0000040A0F5800010BD0846420018BFD2F17E
:1056E000807288BF00F0004010BDFF2141EAD05019
:1056F000C005704751EA000C00F113801CF5000F43
:1057000058BFBCF5000F01D48142704707D711F58F
:10571000000F58BF10F5000F15D481427047894221
:1057200070471CF5000F04D5BCF5000FF7D5884273
:1057300070474FF0807C1CEB410F38BF1CEB400FD3
:1057400001D28842704780EA010081EA000180EAC4
:105750000100FFF7F8BE000090EA010F48BF81F09A
:1057600000413FF536AD421A04D882F00042A0EB6A
:10577000020011444FEAD0524FF07F4C1CEA410F17
:10578000A2EBD15318BF9CEA026F4AD04FF0004CF5
:105790004CEA00204CEA012121FA03FCB0EB0C0C8E
:1057A0000FD412F0FE0F36D05FEA4C001DD5001268
:1057B00040EBC25038BF70471CF03F0F18BF704716
:1057C0000BE0A2F101025FEA1C2040EBC25038BF9F
:1057D00070471CF07F0F18BF7047C3F1200399403A
:1057E00014BF401E20F00100704780084FEA1223CA
:1057F00008BF7047B0FA80FCA2EB0C02CCF1280C79
:1058000060FA0CF093EA122F04BF00EBC25070470D
:105810004FEAC3707047130A5FEADC1008BF704795
:10582000F6E79CEA026F04D010EA5C0F08BF002084
:10583000704710B5FFF713FF40DFF63E81F00040E0
:1058400070470CF00F03092B08BF082000F05980A7
:105850000A2B0BD0082B18BF704708BF1CF0400F55
:105860000AD04FF000004FF0000170471CF0400FCD
:1058700018BF4FF0004070471CF0100F08D020F008
:10588000704300F07F4242EAD3014FEA4370704711
:1058900000F0604021F07F4242EA000201F07F40C8
:1058A00040EA727070474FF0FF0C4CF4E06C1CEA59
:1058B00011531CBF9CEA030C9445C2BFDA4201EBB2
:1058C00002517047002B0DD0BCF1000F0FD0002A01
:1058D00001F00041A4BF41F0E04141F07F614FF091
:1058E0000000704701F000414FF00000704750EA9F
:1058F00001334FF09B0C18BF4CF0806C7EF4B6AFB8
:1059000070471CF4801F11D01CF4E02F03D06FEA05
:10591000CC31490070474FF04050EFF3008222F045
:10592000704242EA000282F3008870474FF00000A4
:1059300070470000000000004FBB610567ACDD3F11
:10594000182D4454FB21E93F9BF681D20B73EF3FA6
:10595000182D4454FB21F93FE2652F227F2B7A3C1E
:10596000075C143326A6813CBDCBF07A8807703CD7
:10597000075C143326A6913CC4EB98999999C9BF4A
:10598000711623FEC671BCBF6D9A74AFF2B0B3BF7F
:105990009AFDDE522DDEADBF2F6C6A2C44B4A2BF3F
:1059A0000D5555555555D53FFF8300922449C23FAB
:1059B0006E204CC5CD45B73F513DD0A0660DB13FDF
:1059C000EB0D76244B7BA93F11DA22E33AAD903FF1
:1059D0000000000000000000F8590008000000204E
:1059E000540100006C010008445A000854010020D2
:1059F00064080000C80100081184A24A04100B01C9
:105A00000203040607080954011B207004015A030D
:105A100044803F25AE47613EE80BC041B81E853D3E
:105A2000CDCC4C3D10012A231644230843033240B9
:105A3000412D010203040420090607080902040697
:045A4000080000005A
:0400000508000131BD
:00000001FF
