:020000040800F2
:10000000600700208D18000885190008871900086E
:100010008B1900088F1900089319000800000000D0
:100020000000000000000000000000009719000818
:1000300099190008000000009B1900089D1900088C
:10004000A7180008A7180008A71800089B1C00089C
:10005000A7180008A7180008A7180008A718000884
:10006000A7180008A7180008A7180008A718000874
:10007000A7180008A7180008A7180008A718000864
:10008000A7180008A7180008A7180008A718000854
:10009000A7180008A7180008A7180008A718000844
:1000A000A7180008A7180008A7180008A718000834
:1000B000A7180008A7180008A7180008A718000824
:1000C000A7180008A7180008A7180008A718000814
:1000D000A7180008791B0008A7180008A71800082F
:1000E000A7180008AF1C0008A718000800F002F8C5
:1000F00000F090F80AA090E8000C82448344AAF132
:100100000107DA4501D100F085F8AFF2090EBAE82F
:100110000F0013F0010F18BFFB1A43F0010318473B
:10012000D8350000F8350000103A24BF78C878C1EF
:10013000FAD8520724BF30C830C144BF04680C60ED
:10014000704700000023002400250026103A28BF35
:1001500078C1FBD8520728BF30C148BF0B60704739
:100160006E2902F0C580702902F03582662903F0FD
:100170004982652903F04682672903F04382612999
:10018000AFF3008003681B0A28BF41F08001692992
:1001900002F07480642902F07180752902F06E808B
:1001A0006F2902F0C381782902F00182E92902F067
:1001B0005F81E42902F05C81F52902F05981EF2981
:1001C00002F0C081F82902F000820368DB0928BF31
:1001D00041F08001632902F0CE80732902F0D380C0
:1001E000E32902F0B684F32902F0BB8400207047B3
:1001F0001FB502F00BFD04000020002103F0ECF914
:10020000401C60600020002103F0D0F9E0601FBDB9
:1002100010B510BD02F0CDFC1146FFF7E9FF01F06B
:1002200055FB02F0A3FD03B4FFF7F2FF03BC01F09E
:100230001FFC00000CB50020019000906C48006885
:1002400040F480306A49086000BF6948006800F4E3
:10025000003000900198401C0190009818B9019856
:10026000B0F5A06FF1D16248006800F4003010B121
:100270000120009001E0002000900098012843D167
:100280005C48006840F010005A4908600846006861
:1002900020F0030008600846006840F00200086093
:1002A00053484068524948600846406848600846DC
:1002B000406840F4806048600846406820F47C1044
:1002C00048600846406840F4E81048600846006806
:1002D00040F08070086000BF4548006800F0007082
:1002E0000028F9D04248406820F0030040494860A7
:1002F0000846406840F00200486000BF3C48406843
:1003000000F00C000828F9D10CBD10B5FFF792FFE2
:1003100010BD10B53648006840F00100344908604F
:10032000084640683449084031494860084600683A
:10033000324908402E4908600846006820F48020B1
:1003400008600846406820F4FE0048604FF41F0033
:100350008860FFF7DAFF4FF000602949086010BDA0
:1003600010B5002100200022214B5B6803F00C0136
:1003700021B1042906D0082928D107E0214B224CBD
:10038000236027E01F4B204C236023E0184B5B6861
:1003900003F47010164B5B6803F48032022303EB06
:1003A000904022B9194B4343174C23600DE0104B8A
:1003B0005B6803F4003323B1144B4343124C2360B6
:1003C00003E0104B4343104C236003E00D4B0E4CF5
:1003D000236000BF00BF064B5B68C3F303130C4CE4
:1003E000E15C094B1B68CB40074C236010BD00004B
:1003F00000100240002002400000FFF8FFFFF6FE60
:1004000008ED00E000127A000000002000093D0025
:100410000400002031490143314A1160704770B532
:10042000002100230F22C47804B32D4C246804F467
:10043000E064C4F5E064210AC1F10403CA404478D1
:1004400004FA03F18478144021430901254C06780D
:10045000A155047804F01F050124AC4005786D1106
:10046000AD0005F1E025C5F8004109E0047804F08D
:100470001F050124AC401C4D0678761145F8264036
:1004800070BD1A4A0A400243154B1B1F1A60704781
:1004900039B1134A121D12680243114B1B1D1A6019
:1004A00006E00F4A121D126882430D4B1B1D1A6095
:1004B0007047042808D14FF0E021096941F0040198
:1004C0004FF0E022116107E04FF0E021096921F0CF
:1004D00004014FF0E0221161704700000000FA05AE
:1004E0000CED00E000E400E080E100E080FFFF1F91
:1004F00010B50446CC48844208D10121042000F004
:100500002DFB0021042000F029FB46E0C74884426F
:1005100008D10121082000F021FB0021082000F073
:100520001DFB3AE0C248844208D10121102000F0AE
:1005300015FB0021102000F011FB2EE0BD48844285
:1005400008D10121202000F009FB0021202000F02B
:1005500005FB22E0B848844208D10121402000F088
:10056000FDFA0021402000F0F9FA16E0B348844279
:1005700008D10121802000F0F1FA0021802000F054
:10058000EDFA0AE0AE48844207D10121801500F05F
:10059000E5FA0021A01500F0E1FA10BD10B5012127
:1005A000084600F0DBFA0021012000F0D7FA10BD68
:1005B0002DE9F041024600250026002000230024FA
:1005C000002791F803C00CF00F0591F803C00CF060
:1005D000100CBCF1000F03D091F802C04CEA0505E5
:1005E00091F800C0BCF1000F31D0146800202BE05E
:1005F0004FF0010C0CFA00F3B1F800C00CEA03064E
:100600009E4220D183004FF00F0C0CFA03F7BC433D
:1006100005FA03FC4CEA040491F803C0BCF1280F6E
:1006200006D14FF0010C0CFA00FCC2F814C00AE02D
:1006300091F803C0BCF1480F05D14FF0010C0CFA42
:1006400000FCC2F810C0401C0828D1D31460B1F8D7
:1006500000C0BCF1FF0F34DD546800202EE000F133
:10066000080C4FF0010808FA0CF3B1F800C00CEACE
:1006700003069E4221D183004FF00F0C0CFA03F7C2
:10068000BC4305FA03FC4CEA040491F803C0BCF136
:10069000280F05D100F1080C08FA0CF8C2F81480F4
:1006A00091F803C0BCF1480F07D100F1080C4FF0DE
:1006B000010808FA0CF8C2F81080401C0828CED3B4
:1006C0005460BDE8F0814FF6FF7101800221817016
:1006D0000421C17070470246002093680B400BB1A3
:1006E000012000E0002070470146886880B2704712
:1006F00002460020D3680B400BB1012000E000202F
:1007000070470146C86880B2704701617047416117
:1007100070470AB1016100E041617047C1607047F4
:100720004FF480320A438261816182618269826909
:10073000704702460020434B18684FF680731840FC
:1007400040EA021008433F4B186070473E49C861B9
:100750007047F0B50A46002300240021002500F070
:100760000046B6F1004F02D1364EF16901E0354E38
:100770007168C0F3034583B200F44016B6F5401F1C
:1007800008D121F070612F4E766826F070662D4FEB
:100790007E6012E000F48016B6F5801F06D10326B5
:1007A00006FA05F4A14341F0706106E0460D3601FA
:1007B00003FA06F6B14341F0706122B1460D3601ED
:1007C00003FA06F6314300F00046B6F1004F02D1BD
:1007D0001C4EF16101E01B4E7160F0BD30B500228E
:1007E0008B071C0F0F2303FA04F2164B08338C10EF
:1007F00053F824309343134C08348D1044F82530BB
:1008000023468C1053F824308C07240F00FA04F48C
:1008100023430C4C08348D1044F8253030BD0A4970
:10082000DC3108607047000000080140000C014006
:10083000001001400014014000180140001C01405C
:10084000002001400000014000002042DF48006815
:1008500040F00100DD49086008464068DC49084076
:10086000DA49486008460068DA490840D749086014
:100870000846006820F4802008600846406820F49C
:10088000FE0048604FF41F0088607047CF49096838
:1008900021F48031CD4A11601146096821F480218C
:1008A0001160B0F5803F03D0B0F5802F0ED106E087
:1008B000C649096841F48031C44A116007E0C34960
:1008C000096841F4A021C14A116000E000BF00BFE7
:1008D000704710B501460022002300204A11012A6A
:1008E00002D1BA4C236806E0022A02D1B74C236A2F
:1008F00001E0B64C636A01F01F02012494401C40E1
:100900000CB1012000E0002010BD38B5002000909F
:100910000024002500BF3120FFF7DBFF05460098CB
:10092000401C00900098B0F5A06F01D0002DF2D0CF
:100930003120FFF7CEFF08B1012400E0002420465B
:1009400038BD01460020A14A106820F0F80040EAB6
:10095000C10010607047A04908607047024600203F
:100960009A4B586820F47C1042EA01031843974BD5
:100970005860704798490866704701460020934ABE
:10098000506820F003000843506070478F4840686B
:1009900000F00C007047014600208C4A506820F09F
:1009A000F00008435060704701460020874A5068B5
:1009B00020F4E06008435060704701460020834AFD
:1009C000506820F4605040EAC1005060704729B17F
:1009D0007E4A527A02437D4B5A7204E07B4A527A35
:1009E00082437A4B5A7270477B49D831086070470E
:1009F00001460020754A506820F44040084350608A
:100A000070470021714A20321170704A82F820101C
:100A1000012802D004280AD104E001216B4A2032C7
:100A2000117005E00521694A2032117000E000BF15
:100A300000BF70476949086070476449096A01430B
:100A4000624A11627047654944390860704730B5A1
:100A500000210022002400235C4D6D6805F00C018C
:100A600021B1042905D0082923D105E05C4D05609A
:100A700022E05B4D05601FE0544D6D6805F4701277
:100A8000524D6D6805F48034022505EB92421CB985
:100A9000544D554305600BE04C4D6D6805F4003531
:100AA0001DB1504D5543056002E04D4D5543056065
:100AB00002E04B4D056000BF00BF444D6D6805F07E
:100AC000F0010909484D6B5C0568DD4045603F4D0C
:100AD0006D6805F4E061090A434D6B5C4568DD40D3
:100AE00085603A4D6D6805F46051C90A3E4D6B5CF6
:100AF0004568DD40C560354D6D6805F44041890BA2
:100B00003A4D6B5CC568B5FBF3F5056130BD29B1A5
:100B10002E4A526902432D4B5A6104E02B4A526916
:100B200082432A4B5A61704729B1284A926902438D
:100B3000264B9A6104E0254A92698243234B9A61CD
:100B4000704729B1214AD2690243204BDA6104E09F
:100B50001E4AD26982431D4BDA61704729B11B4A94
:100B6000D2680243194BDA6004E0184AD268824323
:100B7000164BDA60704729B1144A12690243134BCD
:100B80001A6104E0114A12698243104B1A617047DE
:100B900012494039086070470F49C86470470B49D3
:100BA000C87170470948406A40F080700749486240
:100BB000704701460020054A92680A400AB10120A8
:100BC00000E0002070470149887270470010024021
:100BD0000000FFF8FFFFF6FE0000424280044242A0
:100BE00000127A0000093D001400002024000020BB
:100BF00010B50446FB48844209D101218803FFF760
:100C0000ADFF00214FF48040FFF7A8FF32E0F64827
:100C1000844209D101214804FFF7ADFF00214FF4C0
:100C20000030FFF7A8FF25E0F048844209D10121F8
:100C30008804FFF7A0FF00214FF48020FFF79BFFFF
:100C400018E0EB48844209D10121C804FFF793FF63
:100C500000214FF40020FFF78EFF0BE0E5488442AF
:100C600008D101210805FFF786FF00214FF480100D
:100C7000FFF781FF10BD2DE9F04786B005460E460F
:100C80000024A24600BFA1460027B08900B100BFE2
:100C90002F462C8A4CF6FF700440F08804432C82C7
:100CA000AC894EF6F3100440B0883189084371894D
:100CB00008430443AC81AC8A4FF6FF400440B0893E
:100CC0000443AC8201A8FFF7C2FEC648874202D1A6
:100CD000DDF810A001E0DDF80CA0A88900F40040C8
:100CE00040B10AEBCA0000EB0A1031684900B0FBC2
:100CF000F1F807E00AEBCA0000EB0A10316889003E
:100D0000B0FBF1F86420B8FBF0F004012009642185
:100D100001FB1089A88900F4004040B1322000EBAB
:100D2000C900B0FBF1F000F00700044308E03220F6
:100D300000EB09106421B0FBF1F000F00F00044358
:100D40002C8106B0BDE8F0874FF4165101600021F8
:100D50008180C18001810C21418100218181704706
:100D600010B502460020108A4FF2FF0318400B888E
:100D70004C8823438C882343CC8823431843108218
:100D800010BD0021018041808180C180704721B168
:100D9000828942F40052828104E082894DF6FF7319
:100DA0001A4082817047F0B50346002400260025D2
:100DB000002040F66A17B94200D100BF1846C1F3BF
:100DC000421401F01F06012707FA06F5012C01D194
:100DD0000C3004E0022C01D1103000E014301AB1C4
:100DE00007682F43076002E00768AF430760F0BD64
:100DF0001AB1838A0B43838202E0838A8B43838206
:100E00007047028A4FF6F0731A400282028A0A4340
:100E10000282704782894FF2FF731A408281828971
:100E20000A438281704721B1828942F002028281A5
:100E300004E082894FF6FD731A4082817047028A6E
:100E40004FF6DF731A400282028A0A430282704719
:100E500021B1028A42F48042028204E0028A4BF607
:100E6000FF731A4002827047C1F308028280704704
:100E700001468888C0F308007047818941F001016C
:100E800081817047028BD2B20283028B42EA012237
:100E900002837047028B02F47F420283028B0A4373
:100EA0000283704721B1828A42F02002828204E0EC
:100EB000828A4FF6DF731A408282704721B1828A9C
:100EC00042F01002828204E0828A4FF6EF731A40E9
:100ED0008282704721B1828A42F00802828204E055
:100EE000828A4FF6F7731A408282704721B1828955
:100EF00042F40042828103E08289C2F30E028281C1
:100F0000704721B1828A42F40062828204E0828AC0
:100F10004FF2FF731A4082827047828A4FF6FB734A
:100F20001A408282828A0A438282704721B1828A71
:100F300042F00202828204E0828A4FF6FD731A4078
:100F40008282704702460020B1F5007F00D100BFC9
:100F500013880B400BB1012000E00020704701F422
:100F60000072B2F5007F00D100BFCA430280704713
:100F700070B50246002400230025002040F66A16C2
:100F8000B14200D100BFC1F3421501F01F03012699
:100F900006FA03F3012D02D19689334006E0022DB3
:100FA00002D1168A334001E0968A33400C120126A2
:100FB00006FA04F41688344013B10CB1012000E0A5
:100FC000002070BD10B50022002340F66A14A14233
:100FD00000D100BF0A1201249440A3B2DC43048074
:100FE00010BD0000003801400044004000480040AF
:100FF000004C00400050004010B50120FFF7C8FD34
:101000000020FFF7C5FD10BD2A4908607047294937
:10101000091F0860704727498431086070470146FE
:101020000020254A10884FF67F4210400843224A8C
:1010300010807047014600201F4A10884FF68072CA
:10104000104008431C4A1080704708B500220092E7
:10105000194A2C3A0092009A02440092009A1160B8
:1010600008BD08B501460020009013482C380090B8
:101070000098084400900098008808BD0D489C30F6
:101080000068C0B270470C480830008840F001008A
:1010900009490831088070470648A0300068C0B28E
:1010A000704705480830008840F0020002490831C6
:1010B0000880704704860D422C6C004010B5012159
:1010C0000807FFF758FD00214FF08050FFF753FD50
:1010D00010BD2A49086270472849086170470146D7
:1010E0000020274A106820F0E00008431060704795
:1010F0002249A0310860704710B502460020204BFD
:10110000186820F00300104318601E4B1B6843F062
:1011100004031C4C2360012901D130BF00E020BF33
:10112000184B1B6823F00403164C236010BD1448B1
:10113000006840F00400124908600846006840F06A
:10114000020008600F48006840F004000D49086084
:1011500000BF00BF30BF704701460020084A5268F8
:101160000A400AB1012000E00020704704490968E4
:1011700041EA8001024A11607047000000000E42FF
:101180000070004010ED00E029B1504A128802437F
:101190004E4B1A8004E04D4A128882434B4B1A8012
:1011A00070474A48001D008840F010004749091D5B
:1011B000088070474548001D00884FF6EF710840D1
:1011C0004249091D08807047002140481C300188B1
:1011D000001F008841EA0040704700B50246FFF753
:1011E000E0FF100C394918310880091D0A80FFF70B
:1011F000E1FF00BD00B50246FFF7D3FFC2F3034095
:10120000324908310880091D0A80FFF7D3FF00BD6D
:1012100000B50246FFF7C5FF100C2C4920310880AD
:10122000091D0A80FFF7C6FF00BD002027491031C5
:1012300009880907080B25491431098808437047B4
:1012400000BF2248001D008800F020000028F8D0D0
:1012500070471E48001D00884FF6F77108401B4973
:10126000091D088000BF1948001D008800F0080013
:101270000028F8D0704701460020144A121D128839
:101280000A400AB1012000E0002070470F49091D03
:10129000098881430D4A121D1180704701460020C4
:1012A0000A4A121D12880A40D0B2084A12880A401F
:1012B00012B108B1012000E0002070470349091D68
:1012C00009888143014A121D11807047002800409F
:1012D00001460020FE4A106800F038000843106004
:1012E0007047FB49096821F00801F94A116011466D
:1012F0000968014311607047F549096821F0100140
:10130000F34A116011460968014311607047F148C2
:10131000EF494860F04848607047EE48EC49486043
:10132000ED4848607047EA48006940F08000E849AD
:1013300008617047E648006940F08000E4490861B0
:1013400070470420E249C96801F0010109B1012098
:101350000EE0DF49C96801F0040109B1022007E08D
:10136000DB49C96801F0100109B1032000E0042045
:10137000704700B502460423FFF7E3FF034603E08E
:10138000FFF7DFFF0346521E012B01D1002AF7D1E0
:1013900002B90523184600BD30B5044604254FF4B4
:1013A0003020FFF7E6FF0546042D17D1C848006935
:1013B00040F00200C649086108464461006940F0F7
:1013C000400008614FF43020FFF7D3FF0546C048C6
:1013D000006941F6FD710840BD490861284630BDED
:1013E00010B504244FF43020FFF7C3FF0446042C4B
:1013F00016D1B748006940F00400B54908610846B5
:10140000006940F0400008614FF43020FFF7B1FF61
:101410000446AF48006941F6FB710840AC490861D9
:10142000204610BD00B502460423FFF78AFF03469D
:1014300003E0FFF786FF0346521E012B01D1002A6D
:10144000F7D102B90523184600BD10B504244FF4A6
:101450003020FFF7E7FF0446042C16D19C480069B2
:1014600040F004009A4908610846006940F04000D5
:1014700008614FF43020FFF7D5FF04469448006917
:1014800041F6FB71084092490861204610BD0020DA
:101490008F49C96901F0020109B1012000E0002073
:1014A000704730B5A5250424FFF7F1FF00B10025F2
:1014B0004FF43020FFF75DFF0446042C3AD18548F5
:1014C00083498860844888600846006940F02000AD
:1014D00008610846006940F0400008614FF4302080
:1014E000FFF747FF0446042C1BD17948006941F6F9
:1014F000DF710840764908610846006940F0100035
:10150000086176480580E002FFF733FF0446052CAA
:1015100010D06F48006941F6EF7108406C490861CE
:1015200008E0052C06D06A48006941F6EF710840D2
:1015300067490861204630BD78B506460C4604254B
:1015400000200090E802FFF714FF0546042D24D187
:101550005F48006940F001005D4908613480E8029D
:10156000FFF707FF0546042D10D1B01C0090200C9A
:1015700000990880E802FFF7FCFE05465448006920
:1015800041F6FE7108405249086106E05048006982
:1015900041F6FE7108404E490861284678BD70B595
:1015A00004460D460426F002FFF7E3FE0646042E2D
:1015B00011D14748006940F0010045490861258084
:1015C000F002FFF7D6FE06464148006941F6FE717B
:1015D00008403F490861304670BD70B505460E466B
:1015E0000424E002FFF7C5FE0446042C17D1394855
:1015F00037498860384888600846006940F0100024
:1016000008612E80E002FFF7B4FE0446052C06D0E8
:101610002F48006941F6EF7108402D4908612046C6
:1016200070BD2DE9F04304464FF6FF763746B046CD
:10163000B1460425E443E6B2C4F30727C4F30748E0
:101640004FEA1469E802FFF794FE0546042D49D1DC
:1016500020481F498860204888600846006940F09B
:1016600010000861FF2E06D01C4808300680E802F2
:10167000FFF77FFE0546042D08D1FF2F06D017483F
:101680000A300780E802FFF774FE0546042D0AD1F0
:10169000B8F1FF0F07D011480C30A0F80080E80225
:1016A000FFF767FE0546042D0AD1B9F1FF0F07D0F9
:1016B0000A480E30A0F80090E802FFF75AFE0546EF
:1016C000052D0FD00248006941F6EF71084007E090
:1016D0000020024023016745AB89EFCD00F8FF1FD2
:1016E000664908612846BDE8F08330B50546042404
:1016F0004FF43020FFF73DFE0446042C41D16048F2
:101700005E4988605F4888600846006940F02000B4
:1017100008610846006940F0400008614FF430203D
:10172000FFF727FE0446042C22D15448006941F6F5
:10173000DF710840514908610846006940F0100017
:1017400008611DB100205049088002E0A5204E49E3
:1017500008804FF43020FFF70CFE0446052C10D013
:101760004648006941F6EF7108404449086108E0C5
:10177000052C06D04148006941F6DF7108403F4919
:101780000861204630BDF0B505460E4617460424D4
:101790003B483A4988603B488860E002FFF7E9FD32
:1017A0000446042C19D13548006940F01000334933
:1017B000086147F0F800304328433349891C08800A
:1017C000E002FFF7D6FD0446052C06D02B48006941
:1017D00041F6EF710840294908612046F0BD2748CD
:1017E000C069800870472548006A70470020234977
:1017F000096801F0200109B1012000E000207047D4
:1018000029B11E4A126902431C4B1A6104E01B4AAB
:1018100012698243194B1A61704701460020012961
:1018200008D1164AD26902F001020AB1012008E08B
:10183000002006E0114AD2680A400AB1012000E007
:10184000002070470D49C860704704200B49C968E3
:1018500001F0010109B101200EE00849C96801F059
:10186000040109B1022007E00449C96801F0100130
:1018700009B1032000E0042070470000002002406E
:1018800023016745AB89EFCD00F8FF1F094880476A
:1018900009480047FEE7FEE7FEE7FEE7FEE7FEE752
:1018A000FEE7FEE7FEE7FEE704480549054A064B6A
:1018B0007047000013030008ED00000860010020DD
:1018C0006007002060030020600300200026002441
:1018D00000F09CF800F03CFB00F050FB4DE00121D3
:1018E0002648FEF7F8FE002847D0142000F06EF8D6
:1018F00001212248FEF7EFFE00283ED004E0601CE4
:10190000C4B20A2000F062F801211C48FEF7E3FE91
:1019100008B1502CF3DB502C0CDB002203211848BB
:10192000FEF7F7FE00BF01211448FEF7D4FE0028A1
:10193000F9D120E0002516E0142000F047F801213D
:101940000E48FEF7C8FE60B10126012202210C48B4
:10195000FEF7DFFE00BF01210848FEF7BCFE0028AD
:10196000F9D1681CC5B20A2DE6DB26B90122114661
:101970000348FEF7CEFE00260024B0E70008014031
:10198000000C0140704700BFFEE700BFFEE700BF4C
:10199000FEE700BFFEE7704770477047704700EBF7
:1019A000C001C9004FF0E022516100219161052181
:1019B000116100BF4FF0E021096901F48031002975
:1019C000F8D004214FF0E0221161704700B50346C2
:1019D00003E04FF47A70FFF7E2FF1800A3F1010172
:1019E0008BB2F6D100BD10B5044603E04FF47A7017
:1019F000FFF7ECFF2000A4F101018CB2F6D110BD7D
:101A000010B54FF4A060FEF705FD10BD10B5FEF750
:101A10001DFF4FF48030FEF739FFFEF776FF0446D6
:101A2000012C24D14FF4E0110004FEF797FF0020B1
:101A3000FEF7B1FFA002FEF7B7FF0020FEF7BDFFE3
:101A40000220FFF745FC1020FFF756FC0120FEF7AF
:101A500091FF00BF3920FEF73CFF0028FAD002209A
:101A6000FEF78BFF00BFFEF791FF0828FBD110BDEA
:101A7000014600BF704700BF604A128802F0400272
:101A8000002AF9D0C2B25D4B1B1D1A8070470FB4FB
:101A900010B5B4B0002437A80090C92101A8009B5C
:101AA000369A00F07BFA0EE02046621CD4B201AAFE
:101AB000115C5248FFF7D8F900BF40214F48FFF7AB
:101AC00041FA0028F9D0C82C04DA01A800F07AFB0A
:101AD000A042E9D80020009034B010BC5DF814FB9F
:101AE00010B586B00446012144F20400FFF71CF84B
:101AF0004FF40070ADF8140003208DF81600182084
:101B00008DF8170005A93E48FEF752FD4FF480609E
:101B1000ADF8140004208DF8170005A93848FEF729
:101B200047FD25208DF8000003208DF801008DF879
:101B3000020001208DF803006846FEF770FC019456
:101B40000020ADF80800ADF80A00ADF80C00ADF8C3
:101B500010000C20ADF80E0001A92848FFF78BF803
:101B6000012240F225512548FFF71DF901212348A4
:101B7000FFF70DF906B010BD10B540F225511F4812
:101B8000FFF7F6F9002838D01C48FFF771F9C4B206
:101B900021461CA000F01CFA1B48008800F40040FD
:101BA00058BB1948008800F4804060B10A2C03D06B
:101BB00000201549088020E01348008840F40040C8
:101BC0001149088019E00D2C06D10F48008840F417
:101BD00080400D49088010E00B480088C0F30D00DC
:101BE0000A490C5408480088401C074908800846E8
:101BF0000088C72801DD0020088010BD00380140A2
:101C000000080140256300002C000020380000205F
:101C100010B501214FF0C050FEF793FF0120FFF7F0
:101C200058FAFFF7E9F90120FEF7EBFE00BF41206B
:101C3000FEF74FFE0028FAD04FF48070FEF7FDFE4D
:101C40000120FEF700FFFFF704FBFFF7F9FA47F664
:101C5000FF70FFF7CFFAFFF7F3FA10BD10B50420BD
:101C6000FFF7FFF94AF2A551884207D0FFF7D0FFEE
:101C70004AF2A5510420FFF7E8F90DE07B20FEF7BA
:101C800028FE10B97A20FEF724FEFEF78BFF012014
:101C9000FEF7D9FEFFF7DDFA10BD10B50120FFF702
:101CA000FDFA0120FFF70AFBFFF7CAFA10BD10B5D5
:101CB0000220FFF7F3FA0220FFF700FBFFF7C0FA5C
:101CC00010BD0146CA1701EB92729210A1EB82027D
:101CD00092B9642091FBF0F200FB121050B94FF45E
:101CE000C87091FBF0F200FB121008B90120704798
:101CF0000020FCE70120FAE70020F8E72DE9F05F7B
:101D000006460F4690469946DDE90AAB0024B6F533
:101D1000FA6F03DB40F63300864202DD0120BDE8A6
:101D2000F09F40F2B2750AE02846FFF7CAFF10B1F3
:101D30007A48044401E07A480444681C85B2B542FC
:101D4000F2DB781EC7B2002510E07648405D40F215
:101D5000A321484304EBC0143046FFF7B2FF18B18B
:101D6000012D01D170480444681C85B2BD42ECDBF2
:101D7000A8F1010040F2A321484304EBC014C9EBD1
:101D80004910C0EB092004EB0014CAEB0A1004EB65
:101D900080045C44FFF73CFF4AF2A5510420FFF7A2
:101DA00054F92046FFF719FAFFF74AFA0020B6E780
:101DB000F0B503460C461546642093FBF0F0C6B21E
:101DC000642093FBF0F700FB1730C1B2132E02DD45
:101DD00001F16400C1B20846CF1701EB977701EB20
:101DE000A707BAB2072092FBF0F700FB172082B2D8
:101DF0005719601EDFF834C11CF80000384482B265
:101E0000CF1701EB9777BF10A1EB87071FB9032C02
:101E100001DA501E82B2072092FBF0F700FB172078
:101E2000C0B2F0BD70B5002600240025FFF7CCF944
:101E300006463D48B6FBF0F43D480088A0423DD040
:101E40003B490C8040F2B27510E02846FFF739FF9D
:101E500040B1B4F5B77F02D3A4F5B77404E0681CB1
:101E600085B206E0A4F26D14681C85B2B4F5B67FA5
:101E7000EBD800BF2F480580002516E02D480088CC
:101E8000FFF71FFF30B1012D04D11D2C01D31D3CE4
:101E900009E00CE02348405DA04203D82148405DA2
:101EA000241A00E003E0681C85B21C2CE6D200BFB7
:101EB000681C21490870601C204908701A48B6FB4C
:101EC000F0F100FB11644FF46160B4FBF0F01C49C9
:101ED00008704FF46160B4FBF0F100FB11403C214D
:101EE000B0FBF1F0174908704FF46160B4FBF0F1FA
:101EF00000FB11403C21B0FBF1F201FB1200124942
:101F000008700E4802780C4801780A480088FFF7EC
:101F10004FFF0E490870002070BD00000085E201EF
:101F20008033E101143600088051010008360008B2
:101F3000360000202E00002030000020310000205C
:101F40003200002033000020340000203500002043
:101F500008B501211C20FEF7E7FD0320ADF80000C5
:101F600010208DF8030003208DF802006946024816
:101F7000FEF71EFB08BD0000000C014008B50F2055
:101F8000ADF8000028208DF8030069460148FEF7EF
:101F90000FFB08BD00080140704700007CB51D46DE
:101FA00016460C00009001D02044401E074B7B4495
:101FB0002A4669460190304600F0B3F905461CB147
:101FC0000020694600F0C0F928467CBDA10300004E
:101FD0000FB4044910B503AA029800F0D9F910BC57
:101FE0005DF814FB2800002070B50C460546012A58
:101FF00005D02878800600D5EA69002302E0012395
:1020000005E05B1C934202D2E05C0028F9D1A8698C
:10201000E618C01AA861286A18442862284600F009
:10202000F4F804E0D5E9012114F8010B9047B4421B
:10203000F8D3284600F0FFF870BD00002DE9F05FEE
:10204000894604464FF0000ADFF874B1FB44C0F83B
:1020500020A02046E1688847002874D0252806D0B3
:10206000D4E901219047206A401C2062F1E7002654
:102070005F462046E16888472028054607DB312D6A
:1020800005D2781910F8200C08B10643F1E7B00723
:1020900001D526F00406C4F81CA00027C4F818A037
:1020A0002A2D09D0284601F07AFA38B304EB8708C4
:1020B000303DC8F8185019E059F8041B204604EBCD
:1020C00087029161E1688847012F054618D1E069D0
:1020D000002820DA26F020061DE0D8F8180000EBD2
:1020E000800005EB40003038C8F818002046E16851
:1020F0008847054601F053FA0028EED1012F0AD097
:102100002E2D08D12046E16888477F1C0546022F06
:1021100046F02006C4DBA069002803DA404246F0FE
:102120000106A061F00701D026F010066C2D0BD03F
:10213000682D09D04C2D39D06A2D35D0742D35D06D
:102140007A2D33D016E038E0E1682F4620468847E4
:10215000B842054609D16C2F26D04FF48060E16863
:10216000064320468847054604E06C2F1AD04FF4FA
:10217000807006430DB3A5F14100192802D820351F
:1021800046F400664A462946204626604E46FDF73C
:10219000E7FF80B101280BD0F61D26F0070000F103
:1021A000080956E74020E4E78020D8E70020D6E77A
:1021B00006F104094DE7284652E7206ABDE8F09F82
:1021C000D015000010B5431C02E010F8011B71B1DE
:1021D0008107FAD14FF0013202C88C1A8C4314EAFD
:1021E000C211F9D0C01A0A0603D0C01E10BDC01A11
:1021F00010BD0A0401D0801E10BD0902FCD0401E93
:1022000010BD704770477047704770B504468569C8
:102210000068C10601D5302600E02026C00707D09F
:1022200070BDD4E9012130469047206A401C2062ED
:102230006D1EF6D570BD70B5044685690078C0077F
:1022400007D170BDD4E9012120209047206A401CAD
:1022500020626D1EF6D570BD09684A0501D540B2F1
:102260007047C905FCD500B2704709684A0501D519
:10227000C0B27047C905FCD580B270472DE9F04166
:102280000646002410687529314615A510D0FFF7C1
:10229000E3FF002802DA404212A507E031688A070E
:1022A00001D511A502E0490704D510A5012401E0DC
:1022B000FFF7DBFF00210A2306F1240707E0B0FB4C
:1022C000F3F203FB1200303078541046491C00280A
:1022D000F5D123462A463046BDE8F04100F0CBB99F
:1022E000000000002D0000002B0000002000000076
:1022F00011680268006A530501D508700AE0D30529
:1023000001D5088006E0130603D5C217C1E9000213
:1023100000E008600120704701694A1C02610878EA
:10232000704700B58FB0CDE9013100210591054915
:102330007944CDE9031011466846FFF77FFE0FB0E0
:1023400000BD0000E5FFFFFF0A6802F8010B0A600C
:102350007047D1E900239A4202D2531C0B601070DF
:10236000704710B5436913B1AFF3008001E0FFF788
:102370003BFE012010BD127800F124010A700022FA
:102380004A700122EDE711684FF0FF32E9E70000E3
:10239000074B70B50D467B44FFF7C3FF0446284644
:1023A00000F0E3FB10B14FF0FF3070BD204670BD70
:1023B000DDF6FFFF2DE9FF5F15468A460446DFF88C
:1023C000AC80F8440027D8E900103E46CDE9001063
:1023D00010E03AF816106A4602A800F0CAFB411C49
:1023E00007D02178890603D5E269391891420DD8C2
:1023F0000744761C2078800602D5E069B84205DDE6
:10240000AE42E6DB3AF816000028E2D1A069C01B14
:10241000A0612046FFF7F9FED8E90010CDE90010D1
:10242000002017E03AF818106A4602A800F0A1FB55
:10243000B0F1FF3F81460BD000250DF1080B05E000
:10244000D4E901211BF8050090476D1C4D45F7D3D9
:1024500008F10100B0428046E4DB206A3844206283
:102460002046FFF7E8FEBDE8FF9F00006E12000067
:102470002DE9F0418046D21D22F007020025D2E965
:102480000002F52914A612D0002A06DA0023D0EBA8
:10249000030063EB020211A608E0D8F800108B07D6
:1024A00001D50FA602E0490701D50EA60125114668
:1024B000002408F1240704E000F098F830323A557F
:1024C000641C50EA0102F7D12B46324621464046B1
:1024D000BDE8F04100F0CFB8000000002D00000082
:1024E0002B0000002000000030B4002100F1240483
:1024F00008E002F00705D208303542EA4372DB08F3
:102500006554491C52EA0305F3D10468002310A264
:10251000250708D504F020040C4304D0C469012326
:102520000CA2641EC46130BC00F0A5B810B504460E
:1025300021461068FFF799FE02462046BDE810408C
:102540000023D1E7D21D22F00701D1E90023CBE718
:102550000000000030000000F0B40D4601880905BD
:1025600002D5214C7C4402E01F4C7C440E340021F7
:1025700000F1240608E002F00F071209E75D42EAC5
:1025800003721B097754491C52EA0307F3D10278FE
:102590000023120704D5702D06D009B1022311348F
:1025A0002246F0BC00F067B801231034F8E770B59C
:1025B00004460D4621461068FFF757FE024629469D
:1025C0002046BDE870400023C6E7D21D22F0070375
:1025D000D3E90023C0E70368126843F020030360D7
:1025E0000823C3610023B7E7D410000030B5B0F171
:1025F0000A024FEA900E71F100034EEA817EB0EBC1
:102600000E0061EB91014FEA101E4EEA017E10EBC5
:102610000E0041EB11114FEA102E4EEA016E10EB45
:102620000E0041EB11214FEA104E4EEA014E10EB25
:102630000E0041EB1141401841F100014FEAD0007A
:1026400040EA41704FEAD10110EB80054FEA810466
:1026500044EA907444EB01046D1944EB0404521BEA
:10266000A3414FF0000348BF0A3200D530BD401CE3
:1026700041F1000130BD2DE9F0470D4699469246E3
:10268000044600F124080168880604D5E06921F0B9
:102690001001216000E00120A84201DD471B00E09D
:1026A0000027A1697A1902EB0900081AA0612078B5
:1026B000C00602D42046FFF7A8FD002608E0D4E9B2
:1026C00001211AF806009047206A401C761C2062FF
:1026D0004E45F4DB2078C0060AD52046FFF795FD6D
:1026E00006E0D4E9012130209047206A401C206296
:1026F000381EA7F10107F4DC07E0D4E9012118F83E
:1027000005009047206A401C2062281EA5F10105A3
:10271000F3DC2046FFF78FFD2078000602D502206B
:10272000BDE8F0870120FBE770472DE9FF4F0C461D
:102730001E464FF0FF378BB0D2E90001DDF8608014
:102740000A908A46C1F30A5505B93D46002108465C
:102750004FF00000BAF1000F00F4400005DA00EB82
:1027600080004FF4400101EA50004FEA9059B9F15E
:10277000010F00DDB9460A9850EA4A000ED044F62F
:102780001050A5F2FF3545432F14B8F1000F1ED0AD
:102790007542291E1EDDC9F100021CE0B8F1010FCF
:1027A0004FF0000001D0302103E0F24305E0215456
:1027B000401CB042FBDB30460022002121540B9923
:1027C000C1F80880C1E900200FB0BDE8F08FBD1B43
:1027D0006D1CDEE74A4600DA694206A800F05AFAA4
:1027E00006AB93E8070003AB83E8070050460A995D
:1027F00000F006FB8DE80700A0F500501F380090A0
:102800000398002D09DD42F21F014A46084403A93E
:102810000390684600F065FD08E0A0F500504A46C8
:102820001F3803A90390684600F06FFD8DE807008C
:102830000004000C03D04FF0FF30410800E01046C8
:10284000B8F1000F03D00022009215461EE0751E5D
:1028500005D4FFF7CBFE303262556D1EF9D5B34675
:102860000122084302D000227F1C04E02078302897
:1028700001D100227F1E002A099786D01DE0112D6C
:1028800007DAFFF7B3FE303262556D1C50EA0102E1
:10289000F5D1084302D00098C8B10EE00021681EAF
:1028A00005E0235C625C63542254401E491C814253
:1028B000F7DBAB46A81B401E0990002004F80B0074
:1028C0000B98099AC0F80880C0E9002B7CE7112614
:1028D0004FF0000859E72DE9F04F88460446D21D15
:1028E00022F0070191B0D1E90001CDE90A0100F021
:1028F00042FE02460B98C00F01D02D2007E0206851
:10290000810701D52B2002E0202101EAC000032A23
:10291000099001D0072A05DB03464146204600F016
:1029200079F909E12078800601D5E06900E0062008
:10293000B8F1650F814606D0B8F1660F18D0B8F12E
:10294000670F70D131E00020B9F1110F009001DB69
:10295000112301E009F101030AAA01A90CA8FFF75C
:10296000E4FEDDE90C70002609F10105834647E02D
:1029700001204B4600904FF000470AAA01A90CA87D
:10298000FFF7D3FEDDE90DB00C995D46002610B9C6
:1029900009F101000D18B9EB050003D4C0F1FF36B1
:1029A00009F10105A5EB09002BE0B9F1010F01DAEE
:1029B0004FF001090020B9F1110F0090484601DDE8
:1029C000112300E003460AAA01A90CA8FFF7ADFEF7
:1029D000DDE90C704D4600268346207800070AD4B6
:1029E000AB4500DA5D4601A8012D04DD411911F85F
:1029F000011C302907D04F4502DA17F1040F04DA21
:102A0000012082460FE06D1EEEE7002F02DCED1B79
:102A10003E4403E0781CA84200DD7D1CB81B00F199
:102A2000010A4FF000472078000703D4AA4501DBD4
:102A30004FF0FF3A0021B7F1004F0DF143088DF838
:102A4000431022D002202B23002F01DA7F422D23B6
:102A50004FF00A0C011EA0F1010000DC47B197FB0A
:102A6000FCF10CFB11720F46303208F8012DF1E732
:102A7000A8F1010003702188090501D5452100E076
:102A80006521A0F1010800F8011C09980FA9A1EB2C
:102A90000807FF1D00B10120411901EBEA70A1698F
:102AA0003844081A401EA0612078C00602D420468F
:102AB000FFF7ABFB099828B1D4E901219047206AC0
:102AC000401C20622078C00622D52046FFF79DFBDF
:102AD0001EE0002E04DBB34502DD01A8805D00E0AE
:102AE0003020D4E901219047206A401C2062761CE6
:102AF000AAF101005FEA000A0AD100F087F8C06875
:102B00000168405CD4E901219047206A401C2062A2
:102B1000281EA5F10105DCDC07E0D4E9012118F845
:102B2000010B9047206A401C2062381EA7F1010764
:102B3000F3DC2046FFF77FFB022011B045E610B51D
:102B4000436913B1AFF3008001E0FFF733FC0120CC
:102B500010BD128800F1240182840022C284012267
:102B6000EDE711684FF0FF32E9E7007B00F08000ED
:102B7000704770B516460C46054600F03FF80368EE
:102B800093F80101012806D0FF2C0FD8185D68B119
:102B900001202C7070BDD3F8070132462146034452
:102BA0002846BDE8704003F2071318474FF0FF3086
:102BB00070BD754600F0E0F8AE4605006946534624
:102BC00020F00700854618B020B5FEF76DFEBDE881
:102BD00020404FF000064FF000074FF000084FF084
:102BE000000B21F00701AC46ACE8C009ACE8C00915
:102BF000ACE8C009ACE8C0098D46704710B500F0DC
:102C000005F8001D10BD00BFD10900000048704745
:102C1000200100202DE9F0411F46044603260168EB
:102C2000072A01F4006004DB08B116A505E016A52B
:102C300003E008B115A500E015A521F01000206003
:102C4000A069C01EA0610FB1401EA0612046FFF721
:102C5000DCFA4FB1D4E9012138469047206A401C84
:102C60002062C01C206206E0206AFAE7D4E9012154
:102C700015F8010B9047761EF8D22046FFF7DBFAD5
:102C8000BDE8F0814E414E006E616E00494E460037
:102C9000696E66002DE9F047814616468AB03248D3
:102CA00078440DC88DE80D002F487844801C03AC93
:102CB0000DC884E80D0041F69B303722014491FB9A
:102CC000F2F0A0F1800502FB10141B3C02D5644217
:102CD000012000E00020DFF890A080460027FA44A1
:102CE000AAF1BA0A0DE0E00709D03246684607EBC0
:102CF00047010AEB810100F008FB8DE80700641032
:102D00007F1C002CEFD1184F7F44A83F18E0E80744
:102D100014D007EB04100DF1180A90E80E008AE8B1
:102D20000E00C068F04201D198190890324606A9F9
:102D300003A800F0EAFA03AB83E807006D10641CF7
:102D4000002DE4D132466946B8F1000F03A802D045
:102D500000F0C7FA01E000F0D8FAC9E90001C9F8AB
:102D600008200AB0BDE8F0873C0A00000446AFF333
:102D700000802046FDF757FA004870470001002008
:102D80004FF0013C50F8042B51F8043B9A4221D1FA
:102D9000A2EB0C03934313EACC1317D150F8042B86
:102DA00051F8043B9A4215D1A2EB0C03934313EA6A
:102DB000CC130BD150F8042B51F8043B9A4209D1A3
:102DC000A2EB0C03934313EACC13DBD04FF00000CB
:102DD000704700BFD01A01BAB1FA81F101F01801B1
:102DE00022FA01F0CB40C1F12001DBB2C0B2C01A1F
:102DF0002CFA01F3D11A914311EAC311E6D17047BD
:102E00005FEA400C08BF91F0000F4FEA8C234FEAB5
:102E1000C12243EA51514FEA1C5018BF00F5F0405F
:102E20004FEA300018BF41F000415FEA6C5C00F0EF
:102E30002980BCF1FF3F08BF40F080407047130C71
:102E400006BF12044FF0100C4FF0000C130E04BF1D
:102E500012020CF1080C130F04BF12010CF1040C48
:102E6000930F04BF92000CF1020CD30F04BF520069
:102E70000CF1010C11464FF00002A0F11F00A0EB75
:102E80000C00704711F0004F08BF704731F000414F
:102E90003FF4D5AF0B0C06BF09044FF0100C4FF0F8
:102EA000000C0B0E04BF09020CF1080C0B0F04BF41
:102EB00009010CF1040C8B0F04BF89000CF1020C0A
:102EC000CB0F04BF49000CF1010CCCF12003A0EBA7
:102ED0000C0022FA03F302FA0CF241EA030100F1BA
:102EE0000100704720F07F4C80EA030023F07F4709
:102EF000ACEB070303F57C5300F0004003F1FF0344
:102F00002DE980494FEA154B09B44FEA144325EAED
:102F10000B4E24EA03480FF2042606EB1327490858
:102F20003E785FEA320203FB0667C7F5000707FB3E
:102F300006F64FEA54374FEAD64606F1020607FB7B
:102F4000066CCCF1005C4FEA1C472CEA074C07FBEF
:102F500006F40CFB06F504EB15464FEA961634BF53
:102F600000204FF000404FEAD13706FB07FC4FEA44
:102F70001C4C0CFB0BF7D21B03FB0CF761EB07019E
:102F80000CFB0EF7B0EB074072EB17420CFB08F797
:102F900034BFA2EB0742B2EB074261EB17414FEAA5
:102FA0000C444FEA910706FB07FC4FEA1C4C0CFB54
:102FB0000BF7B0EBC74072EB573203FB0CF734BF93
:102FC000A2EBC742B2EBC74261EB57310CFB0EF7E5
:102FD000B0EBC70072EB57720CFB08F734BFA2EBE3
:102FE000C702B2EBC70261EB5771039F4FEA8161E1
:102FF00041EA921104EBCC044FEAD1374FEA8262E6
:1030000006FB07FC42EA90124FEA80604FEA1C4C34
:103010000CFB0BF7D21B03FB0CF761EB07010CFB5E
:103020000EF7B0EB074072EB17420CFB08F734BF0A
:10303000A2EB0742B2EB074261EB17414FEA8C5516
:103040004FEA910704EB9C2406FB07FC4FEA1C4C5B
:103050000CFB0BF7B0EBC74072EB573203FB0CF7DE
:1030600034BFA2EBC742B2EBC74261EB57310CFB56
:103070000EF7B0EBC70072EB57720CFB08F734BFCA
:10308000A2EBC702B2EBC70261EB577115EB4C25FF
:103090004FEA816141EA92114FEA82624FEAD137E9
:1030A00042EA901206FB07FC44F100044FEA8060FC
:1030B0004FEA1C4C0CFB0BF7D21B03FB0CF761EB2C
:1030C00007010CFB0EF7B0EB074072EB17420CFB4D
:1030D00008F734BFA2EB0742B2EB074261EB17419E
:1030E00015EB1C154FEA813141EA92414FEA8232D9
:1030F00042EA90424FEA80304FEA0C7644F10004F5
:1031000048EA03434EEA0B484FF0000EB2EB080CBE
:1031100071EB030724BF624639464EEB0E0E4FF0AB
:10312000000B0018524149414BEB0B0BB2EB080C62
:1031300071EB03077BF1000B24BF624639464EEB6F
:103140000E0E4FF0000B0018524149414BEB0B0B98
:10315000B2EB080C71EB03077BF1000B24BF624656
:1031600039464EEB0E0E51EA020718BF46F0010633
:1031700016EB0E7655F1000254F1000103D5BDE8BF
:103180008901BDE80088BDE88901B619BDE800489D
:10319000524141EB0101A3F10103704780807F7E22
:1031A0007D7C7B7A797877767675747372717170BD
:1031B0006F6E6E6D6C6C6B6A6A696868676666656F
:1031C0006464636362616160605F5F5E5E5D5D5CFD
:1031D0005C5B5B5A5A59595858575756565555556E
:1031E0005454535352525251515050504F4F4F4ECE
:1031F0004E4D4D4D4C4C4C4B4B4B4A4A4A4949491C
:10320000484848474747474646464545454444445D
:10321000444343434342424242414141002B26D46E
:10322000770021D01CB54FEA370703B44FF01000E8
:103230004FF010014FF000000FBC0BF1010BBDE887
:103240001040BBF1010F08BF5FEA170722BF12F160
:10325000010211F101014FF0004143F1000300F0C0
:10326000004043EA00007047F9D35708DAE746EA1E
:10327000064613F1400F4FEA16461FDD13F1200FEB
:10328000DFBF16430A46002120335B42C8D0C3F19A
:10329000200746EA064602FA07F74FEA164646EACC
:1032A0000706C3F1200722FA03F201FA07F721FA11
:1032B00003F14FF0000342EA0702B1E746EA0206D3
:1032C00046EA06464FEA164646EA0106BCBF46EA0B
:1032D0000646360C4FF000034FF000024FF000019D
:1032E0009EE72DE9C048934630B491E8380007C8FE
:1032F00031EA400C48BF34EA430C03D5FFF7F2FD36
:10330000FFF78CFFF0BCBDE800882DE9C04893466C
:1033100030B491E8380007C810F0804F08BF13F0B0
:10332000804F03D100F005F8FFF778FFF0BCBDE84F
:10333000008820F07F4780EA030023F07F4C07EBF2
:103340000C03A3F57C5300F00040A3F1FE0392F0C0
:10335000000F00F0B38095F0000F00F077802DE9AA
:1033600001494FEA11404FEA144621EA004800FBA8
:1033700006FC24EA064708FB06F607FB08F800FBF4
:1033800007F718EB06484CEB164C4FEA124B18EBBC
:1033900007484FEA15464CEB174022EA0B4E0BFB51
:1033A00006FC25EA06470EFB06F607FB0EFE0BFBA6
:1033B00007F71EEB064E4CEB164C4FF000061EEBCB
:1033C000074E4CEB174B18EB0B0840F1000018EBC5
:1033D0000E0B58EB000840F100008F1A4FF000016F
:1033E0003CBFC943661B14BFB5EB040C00213CBFB6
:1033F000C943F61B4FEA17444EEA8E0E27EA0445EE
:103400004FEA1C4704FB07622CEA074C05FB07F751
:103410000CFB05F604FB0CFC16EB074642EB1742CF
:1034200016EB0C4642EB1C421BEB060658EB020265
:10343000414146EA9E0601D5BDE80189B6195241CF
:1034400041EB0101A3F10103BDE801894FEA1445F5
:103450004FEA114724EA054621EA074C05FB07F429
:1034600006FB07F70CFB06F105FB0CFC11EB074113
:1034700044EB17444FEA124711EB0C4144EB1C4458
:1034800022EA074C05FB07F206FB07F70CFB06F6E2
:1034900005FB0CFC16EB074642EB174216EB0C46FD
:1034A00042EB1C456A1854F1000148BF7047B61939
:1034B000524141EB0101A3F10103704795F0000F68
:1034C00037D04FEA11424FEA144721EA024624EA74
:1034D000074C02FB07F106FB07F70CFB06F402FBA7
:1034E0000CFC14EB074441EB17414FEA154714EB72
:1034F0000C4441EB1C4125EA074C02FB07F506FB97
:1035000007F70CFB06F602FB0CFC16EB074645EB37
:10351000174516EB0C4645EB1C42121951F1000100
:1035200048BF7047B619524141EB0101A3F10103B5
:1035300070474FEA14454FEA114724EA054621EA4D
:10354000074C05FB07F106FB07F70CFB06F24FF0F3
:10355000000605FB0CFC12EB074241EB174112EB96
:103560000C4251EB1C4148BF7047921841EB0101DE
:10357000A3F101037047490050EAC12018BF04209D
:103580004A0D18BF40F0010040F2FF72B2EB515FEC
:1035900008BF40F00200012808BF052070473038FE
:1035A0000A2801D2012070470020704710B5002979
:1035B0000AD00878002807D005487844FFF7E0FBD8
:1035C000002801D0002010BD0248784410BD000042
:1035D0005E0100005601000010B500290AD00878ED
:1035E000002807D005487844FFF7CAFB002801D01F
:1035F000002010BD0248784410BD00004E010000BC
:1036000046010000FFF767B9000303060104060244
:10361000050003051F1C1F1E1F1E1F1F1E1F1E1F30
:10362000040000080000000000000002000100008B
:1036300010000000000000000000000030313233B4
:1036400034353637383941424344454640305800D6
:103650003031323334353637383961626364656608
:103660004030780002400000000000A00000000090
:1036700005400000000000C8000000000C400000F1
:103680000000409C00000000194000000020BCBE6B
:103690000000000034400000BFC91B8E0000000481
:1036A000B5400000504BCFD06607E2CF01000000CC
:1036B0006C4100003E8251AADFEEA73401000000F9
:1036C000D9420000DCB5A0E23A301F97FFFFFFFFB0
:1036D000B4450000FD25A0C8E9A3C14FFFFFFFFFCF
:1036E000FF3F00000000008000000000FF3F0000DE
:1036F00000000080000000004438000800000020A6
:1037000038000000280100087C380008380000203C
:1037100028070000440100081C00000043000000CE
:10372000F8FFFFFF0C0000000E0000000F0000007B
:103730002E0000001001000043000000F8FFFFFF12
:1037400000404040404040404040414141414140B4
:103750004040404040404040404040404040404069
:1037600040050202020202020202020202020202F8
:1037700002202020202020202020200202020202FD
:103780000202909090909090101010101010101055
:103790001010101010101010101010100202020261
:1037A00002028888888888880808080808080808A5
:1037B00008080808080808080808080802020202A1
:1037C00040000000000000000000000000000000B9
:1037D00000000000000000000000000000000000E9
:1037E00000000000000000000000000000000000D9
:1037F00000000000000000000000000000000000C9
:1038000000000000000000000000000000000000B8
:1038100000000000000000000000000000000000A8
:103820000000000000000000000000000000000098
:103830000000000000000000000000000000000088
:103840000000000000A24A04000000000000000088
:103850000102030406070809000000000102030436
:10386000010203040607080902040608000000001C
:0C3870000000000000000000000000004C
:04000005080000ED02
:00000001FF
